{"contracts/VaultRouterHook.sol":{"VaultRouterHook":{"abi":[{"inputs":[{"internalType":"address","name":"_aavePoolAddress","type":"address"},{"internalType":"address","name":"_mainVaultAddress","type":"address"},{"internalType":"address","name":"_rateVolatilityOracleAddress","type":"address"}],"stateMutability":"nonpayable","type":"constructor"},{"inputs":[{"internalType":"address","name":"owner","type":"address"}],"name":"OwnableInvalidOwner","type":"error"},{"inputs":[{"internalType":"address","name":"account","type":"address"}],"name":"OwnableUnauthorizedAccount","type":"error"},{"anonymous":false,"inputs":[{"indexed":true,"internalType":"address","name":"token","type":"address"}],"name":"ClaimUnwindAndRepay","type":"event"},{"anonymous":false,"inputs":[{"indexed":true,"internalType":"address","name":"token","type":"address"},{"indexed":false,"internalType":"uint256","name":"amount","type":"uint256"},{"indexed":true,"internalType":"address","name":"yieldProtocol","type":"address"}],"name":"FundsRouted","type":"event"},{"anonymous":false,"inputs":[{"indexed":true,"internalType":"address","name":"asset","type":"address"},{"indexed":false,"internalType":"string","name":"actionType","type":"string"},{"indexed":false,"internalType":"uint256","name":"amount","type":"uint256"}],"name":"HedgingActionTriggered","type":"event"},{"anonymous":false,"inputs":[{"indexed":true,"internalType":"address","name":"previousOwner","type":"address"},{"indexed":true,"internalType":"address","name":"newOwner","type":"address"}],"name":"OwnershipTransferred","type":"event"},{"inputs":[],"name":"aavePool","outputs":[{"internalType":"contract IPool","name":"","type":"address"}],"stateMutability":"view","type":"function"},{"inputs":[{"internalType":"address","name":"token","type":"address"}],"name":"checkAndRouteFunds","outputs":[],"stateMutability":"nonpayable","type":"function"},{"inputs":[{"internalType":"address","name":"volatileAsset","type":"address"}],"name":"checkFXVolatilityAndHedge","outputs":[],"stateMutability":"nonpayable","type":"function"},{"inputs":[{"internalType":"address","name":"asset","type":"address"},{"internalType":"uint256","name":"amount","type":"uint256"}],"name":"depositToAave","outputs":[],"stateMutability":"nonpayable","type":"function"},{"inputs":[{"internalType":"address","name":"","type":"address"}],"name":"isSupportedToken","outputs":[{"internalType":"bool","name":"","type":"bool"}],"stateMutability":"view","type":"function"},{"inputs":[],"name":"keeperRouteAll","outputs":[],"stateMutability":"nonpayable","type":"function"},{"inputs":[],"name":"mainVault","outputs":[{"internalType":"address","name":"","type":"address"}],"stateMutability":"view","type":"function"},{"inputs":[{"internalType":"address","name":"token","type":"address"}],"name":"onClaimUnwindAndRepay","outputs":[],"stateMutability":"nonpayable","type":"function"},{"inputs":[],"name":"owner","outputs":[{"internalType":"address","name":"","type":"address"}],"stateMutability":"view","type":"function"},{"inputs":[],"name":"rateVolatilityOracle","outputs":[{"internalType":"contract RateVolatilityOracle","name":"","type":"address"}],"stateMutability":"view","type":"function"},{"inputs":[],"name":"renounceOwnership","outputs":[],"stateMutability":"nonpayable","type":"function"},{"inputs":[{"internalType":"address","name":"_mainVault","type":"address"}],"name":"setMainVaultAddress","outputs":[],"stateMutability":"nonpayable","type":"function"},{"inputs":[{"internalType":"address","name":"token","type":"address"},{"internalType":"uint256","name":"threshold","type":"uint256"}],"name":"setTokenThreshold","outputs":[],"stateMutability":"nonpayable","type":"function"},{"inputs":[{"internalType":"address","name":"_yieldProtocolAddress","type":"address"}],"name":"setYieldProtocolAddress","outputs":[],"stateMutability":"nonpayable","type":"function"},{"inputs":[{"internalType":"uint256","name":"","type":"uint256"}],"name":"supportedTokens","outputs":[{"internalType":"address","name":"","type":"address"}],"stateMutability":"view","type":"function"},{"inputs":[{"internalType":"address","name":"","type":"address"}],"name":"tokenThresholds","outputs":[{"internalType":"uint256","name":"","type":"uint256"}],"stateMutability":"view","type":"function"},{"inputs":[{"internalType":"address","name":"newOwner","type":"address"}],"name":"transferOwnership","outputs":[],"stateMutability":"nonpayable","type":"function"},{"inputs":[{"internalType":"address","name":"asset","type":"address"},{"internalType":"uint256","name":"amount","type":"uint256"}],"name":"withdrawFromAave","outputs":[],"stateMutability":"nonpayable","type":"function"},{"inputs":[],"name":"yieldProtocolAddress","outputs":[{"internalType":"address","name":"","type":"address"}],"stateMutability":"view","type":"function"}],"evm":{"bytecode":{"linkReferences":{},"object":"60c060405234801561001057600080fd5b506040516200114638038062001146833981016040819052610031916100fc565b338061005757604051631e4fbdf760e01b81526000600482015260240160405180910390fd5b61006081610090565b506001600160a01b03928316608052600280546001600160a01b031916928416929092179091551660a05261013f565b600080546001600160a01b038381166001600160a01b0319831681178455604051919092169283917f8be0079c531659141344cd1fd0a4f28419497f9722a3daafe3b4186f6b6457e09190a35050565b80516001600160a01b03811681146100f757600080fd5b919050565b60008060006060848603121561011157600080fd5b61011a846100e0565b9250610128602085016100e0565b9150610136604085016100e0565b90509250925092565b60805160a051610fc5620001816000396000818161024a01526106470152600081816101fd0152818161052601528181610bea0152610c9a0152610fc56000f3fe608060405234801561001057600080fd5b50600436106101215760003560e01c8063a03e4bc3116100ad578063c625562611610071578063c62556261461029a578063e11ac333146102ad578063eeb149e7146102c0578063f2fde38b146102d3578063fc929c3e146102e657600080fd5b8063a03e4bc3146101f8578063ae7ced221461021f578063b081ca7e14610232578063b8175f3f14610245578063bba672311461026c57600080fd5b806365da9b05116100f457806365da9b05146101a6578063673747cb146101b9578063715018a6146101cc5780638bb39802146101d45780638da5cb5b146101e757600080fd5b80631adc321314610126578063240028e8146101565780632a41e66c14610189578063487ede0414610193575b600080fd5b600354610139906001600160a01b031681565b6040516001600160a01b0390911681526020015b60405180910390f35b610179610164366004610df8565b60056020526000908152604090205460ff1681565b604051901515815260200161014d565b6101916102f9565b005b6101916101a1366004610e1a565b6104b2565b6101916101b4366004610df8565b610598565b6101916101c7366004610df8565b6105c2565b6101916107c2565b6101916101e2366004610e1a565b6107d6565b6000546001600160a01b0316610139565b6101397f000000000000000000000000000000000000000000000000000000000000000081565b61019161022d366004610df8565b610873565b600254610139906001600160a01b031681565b6101397f000000000000000000000000000000000000000000000000000000000000000081565b61028c61027a366004610df8565b60016020526000908152604090205481565b60405190815260200161014d565b6101396102a8366004610e44565b610ab3565b6101916102bb366004610df8565b610add565b6101916102ce366004610e1a565b610b94565b6101916102e1366004610df8565b610cfa565b6101916102f4366004610df8565b610d35565b60005b6004548110156104af5760006004828154811061031b5761031b610e5d565b60009182526020822001546040516370a0823160e01b81523060048201526001600160a01b03909116925082906370a0823190602401602060405180830381865afa15801561036e573d6000803e3d6000fd5b505050506040513d601f19601f820116820180604052508101906103929190610e73565b6001600160a01b03831660009081526001602052604090205490915080821180156103c757506003546001600160a01b031615155b156104995760006103d88284610ea2565b60035460405163a9059cbb60e01b81526001600160a01b0391821660048201526024810183905291925085169063a9059cbb906044016020604051808303816000875af115801561042d573d6000803e3d6000fd5b505050506040513d601f19601f820116820180604052508101906104519190610ecb565b506003546040518281526001600160a01b03918216918616907f85a896853d96ec4d7e8cd547c99cc6593f4cad2ee614b254c3ce7e22c40ca4109060200160405180910390a3505b50505080806104a790610ee6565b9150506102fc565b50565b6002546001600160a01b03163314806104d557506000546001600160a01b031633145b6104fa5760405162461bcd60e51b81526004016104f190610eff565b60405180910390fd5b604051631a4ca37b60e21b81526001600160a01b038381166004830152602482018390523060448301527f000000000000000000000000000000000000000000000000000000000000000016906369328dec906064016020604051808303816000875af115801561056f573d6000803e3d6000fd5b505050506040513d601f19601f820116820180604052508101906105939190610e73565b505050565b6105a0610d5f565b600380546001600160a01b0319166001600160a01b0392909216919091179055565b6002546001600160a01b03163314806105e557506000546001600160a01b031633145b6106405760405162461bcd60e51b815260206004820152602660248201527f5661756c74526f75746572486f6f6b3a20556e617574686f72697a656420465860448201526520636865636b60d01b60648201526084016104f1565b60008060007f00000000000000000000000000000000000000000000000000000000000000006001600160a01b03166339a07b9c6040518163ffffffff1660e01b8152600401606060405180830381865afa1580156106a3573d6000803e3d6000fd5b505050506040513d601f19601f820116820180604052508101906106c79190610f4c565b925092509250600083156107bb57821561074957846001600160a01b03167f8374e2765ed283f1e54c68f6c893ede8363b41a02e94cc7e03a9d448417517a28260405161073c91906040808252600b908201526a0526174654d6f76656455760ac1b6060820152602081019190915260800190565b60405180910390a26107bb565b81156107bb57846001600160a01b03167f8374e2765ed283f1e54c68f6c893ede8363b41a02e94cc7e03a9d448417517a2826040516107b291906040808252600d908201526c2930ba32a6b7bb32b22237bbb760991b6060820152602081019190915260800190565b60405180910390a25b5050505050565b6107ca610d5f565b6107d46000610d8c565b565b6107de610d5f565b6001600160a01b0382166000908152600160209081526040808320849055600590915290205460ff1661086f576004805460018082019092557f8a35acfbc15ff81a39ae7d344fd709f28e8600b4aa8c65c6b64bfe7fe36bd19b0180546001600160a01b0319166001600160a01b0385169081179091556000908152600560205260409020805460ff191690911790555b5050565b6002546001600160a01b031633146108ea5760405162461bcd60e51b815260206004820152603460248201527f5661756c74526f75746572486f6f6b3a204f6e6c79206d61696e207661756c746044820152732063616e207472696767657220726f7574696e6760601b60648201526084016104f1565b6040516370a0823160e01b81523060048201526000906001600160a01b038316906370a0823190602401602060405180830381865afa158015610931573d6000803e3d6000fd5b505050506040513d601f19601f820116820180604052508101906109559190610e73565b6001600160a01b038316600090815260016020526040902054909150808211156105935760006109858284610ea2565b6003549091506001600160a01b03166109f05760405162461bcd60e51b815260206004820152602760248201527f5661756c74526f75746572486f6f6b3a205969656c642070726f746f636f6c206044820152661b9bdd081cd95d60ca1b60648201526084016104f1565b60035460405163a9059cbb60e01b81526001600160a01b039182166004820152602481018390529085169063a9059cbb906044016020604051808303816000875af1158015610a43573d6000803e3d6000fd5b505050506040513d601f19601f82011682018060405250810190610a679190610ecb565b506003546040518281526001600160a01b03918216918616907f85a896853d96ec4d7e8cd547c99cc6593f4cad2ee614b254c3ce7e22c40ca4109060200160405180910390a350505050565b60048181548110610ac357600080fd5b6000918252602090912001546001600160a01b0316905081565b6002546001600160a01b03163314610b5d5760405162461bcd60e51b815260206004820152603960248201527f5661756c74526f75746572486f6f6b3a204f6e6c79206d61696e207661756c7460448201527f2063616e207472696767657220756e77696e642f72657061790000000000000060648201526084016104f1565b6040516001600160a01b038216907fa581b4d9935b98081ec3947812358e67992b62e0261ec7135cb93a83a531fa1590600090a250565b6002546001600160a01b0316331480610bb757506000546001600160a01b031633145b610bd35760405162461bcd60e51b81526004016104f190610eff565b60405163095ea7b360e01b81526001600160a01b037f0000000000000000000000000000000000000000000000000000000000000000811660048301526024820183905283169063095ea7b3906044016020604051808303816000875af1158015610c42573d6000803e3d6000fd5b505050506040513d601f19601f82011682018060405250810190610c669190610ecb565b5060405163617ba03760e01b81526001600160a01b03838116600483015260248201839052306044830152600060648301527f0000000000000000000000000000000000000000000000000000000000000000169063617ba03790608401600060405180830381600087803b158015610cde57600080fd5b505af1158015610cf2573d6000803e3d6000fd5b505050505050565b610d02610d5f565b6001600160a01b038116610d2c57604051631e4fbdf760e01b8152600060048201526024016104f1565b6104af81610d8c565b610d3d610d5f565b600280546001600160a01b0319166001600160a01b0392909216919091179055565b6000546001600160a01b031633146107d45760405163118cdaa760e01b81523360048201526024016104f1565b600080546001600160a01b038381166001600160a01b0319831681178455604051919092169283917f8be0079c531659141344cd1fd0a4f28419497f9722a3daafe3b4186f6b6457e09190a35050565b80356001600160a01b0381168114610df357600080fd5b919050565b600060208284031215610e0a57600080fd5b610e1382610ddc565b9392505050565b60008060408385031215610e2d57600080fd5b610e3683610ddc565b946020939093013593505050565b600060208284031215610e5657600080fd5b5035919050565b634e487b7160e01b600052603260045260246000fd5b600060208284031215610e8557600080fd5b5051919050565b634e487b7160e01b600052601160045260246000fd5b81810381811115610eb557610eb5610e8c565b92915050565b80518015158114610df357600080fd5b600060208284031215610edd57600080fd5b610e1382610ebb565b600060018201610ef857610ef8610e8c565b5060010190565b6020808252602d908201527f5661756c74526f75746572486f6f6b3a204f6e6c79207661756c74206f72206f60408201526c1ddb995c8818d85b8818d85b1b609a1b606082015260800190565b600080600060608486031215610f6157600080fd5b610f6a84610ebb565b9250610f7860208501610ebb565b9150610f8660408501610ebb565b9050925092509256fea2646970667358221220aadfc00eb2ecc431b6dcac4f25e1a3163452f4a17851eb9bdde3ae725568cef164736f6c63430008140033","opcodes":"PUSH1 0xC0 PUSH1 0x40 MSTORE CALLVALUE DUP1 ISZERO PUSH2 0x10 JUMPI PUSH1 0x0 DUP1 REVERT JUMPDEST POP PUSH1 0x40 MLOAD PUSH3 0x1146 CODESIZE SUB DUP1 PUSH3 0x1146 DUP4 CODECOPY DUP2 ADD PUSH1 0x40 DUP2 SWAP1 MSTORE PUSH2 0x31 SWAP2 PUSH2 0xFC JUMP JUMPDEST CALLER DUP1 PUSH2 0x57 JUMPI PUSH1 0x40 MLOAD PUSH4 0x1E4FBDF7 PUSH1 0xE0 SHL DUP2 MSTORE PUSH1 0x0 PUSH1 0x4 DUP3 ADD MSTORE PUSH1 0x24 ADD PUSH1 0x40 MLOAD DUP1 SWAP2 SUB SWAP1 REVERT JUMPDEST PUSH2 0x60 DUP2 PUSH2 0x90 JUMP JUMPDEST POP PUSH1 0x1 PUSH1 0x1 PUSH1 0xA0 SHL SUB SWAP3 DUP4 AND PUSH1 0x80 MSTORE PUSH1 0x2 DUP1 SLOAD PUSH1 0x1 PUSH1 0x1 PUSH1 0xA0 SHL SUB NOT AND SWAP3 DUP5 AND SWAP3 SWAP1 SWAP3 OR SWAP1 SWAP2 SSTORE AND PUSH1 0xA0 MSTORE PUSH2 0x13F JUMP JUMPDEST PUSH1 0x0 DUP1 SLOAD PUSH1 0x1 PUSH1 0x1 PUSH1 0xA0 SHL SUB DUP4 DUP2 AND PUSH1 0x1 PUSH1 0x1 PUSH1 0xA0 SHL SUB NOT DUP4 AND DUP2 OR DUP5 SSTORE PUSH1 0x40 MLOAD SWAP2 SWAP1 SWAP3 AND SWAP3 DUP4 SWAP2 PUSH32 0x8BE0079C531659141344CD1FD0A4F28419497F9722A3DAAFE3B4186F6B6457E0 SWAP2 SWAP1 LOG3 POP POP JUMP JUMPDEST DUP1 MLOAD PUSH1 0x1 PUSH1 0x1 PUSH1 0xA0 SHL SUB DUP2 AND DUP2 EQ PUSH2 0xF7 JUMPI PUSH1 0x0 DUP1 REVERT JUMPDEST SWAP2 SWAP1 POP JUMP JUMPDEST PUSH1 0x0 DUP1 PUSH1 0x0 PUSH1 0x60 DUP5 DUP7 SUB SLT ISZERO PUSH2 0x111 JUMPI PUSH1 0x0 DUP1 REVERT JUMPDEST PUSH2 0x11A DUP5 PUSH2 0xE0 JUMP JUMPDEST SWAP3 POP PUSH2 0x128 PUSH1 0x20 DUP6 ADD PUSH2 0xE0 JUMP JUMPDEST SWAP2 POP PUSH2 0x136 PUSH1 0x40 DUP6 ADD PUSH2 0xE0 JUMP JUMPDEST SWAP1 POP SWAP3 POP SWAP3 POP SWAP3 JUMP JUMPDEST PUSH1 0x80 MLOAD PUSH1 0xA0 MLOAD PUSH2 0xFC5 PUSH3 0x181 PUSH1 0x0 CODECOPY PUSH1 0x0 DUP2 DUP2 PUSH2 0x24A ADD MSTORE PUSH2 0x647 ADD MSTORE PUSH1 0x0 DUP2 DUP2 PUSH2 0x1FD ADD MSTORE DUP2 DUP2 PUSH2 0x526 ADD MSTORE DUP2 DUP2 PUSH2 0xBEA ADD MSTORE PUSH2 0xC9A ADD MSTORE PUSH2 0xFC5 PUSH1 0x0 RETURN INVALID PUSH1 0x80 PUSH1 0x40 MSTORE CALLVALUE DUP1 ISZERO PUSH2 0x10 JUMPI PUSH1 0x0 DUP1 REVERT JUMPDEST POP PUSH1 0x4 CALLDATASIZE LT PUSH2 0x121 JUMPI PUSH1 0x0 CALLDATALOAD PUSH1 0xE0 SHR DUP1 PUSH4 0xA03E4BC3 GT PUSH2 0xAD JUMPI DUP1 PUSH4 0xC6255626 GT PUSH2 0x71 JUMPI DUP1 PUSH4 0xC6255626 EQ PUSH2 0x29A JUMPI DUP1 PUSH4 0xE11AC333 EQ PUSH2 0x2AD JUMPI DUP1 PUSH4 0xEEB149E7 EQ PUSH2 0x2C0 JUMPI DUP1 PUSH4 0xF2FDE38B EQ PUSH2 0x2D3 JUMPI DUP1 PUSH4 0xFC929C3E EQ PUSH2 0x2E6 JUMPI PUSH1 0x0 DUP1 REVERT JUMPDEST DUP1 PUSH4 0xA03E4BC3 EQ PUSH2 0x1F8 JUMPI DUP1 PUSH4 0xAE7CED22 EQ PUSH2 0x21F JUMPI DUP1 PUSH4 0xB081CA7E EQ PUSH2 0x232 JUMPI DUP1 PUSH4 0xB8175F3F EQ PUSH2 0x245 JUMPI DUP1 PUSH4 0xBBA67231 EQ PUSH2 0x26C JUMPI PUSH1 0x0 DUP1 REVERT JUMPDEST DUP1 PUSH4 0x65DA9B05 GT PUSH2 0xF4 JUMPI DUP1 PUSH4 0x65DA9B05 EQ PUSH2 0x1A6 JUMPI DUP1 PUSH4 0x673747CB EQ PUSH2 0x1B9 JUMPI DUP1 PUSH4 0x715018A6 EQ PUSH2 0x1CC JUMPI DUP1 PUSH4 0x8BB39802 EQ PUSH2 0x1D4 JUMPI DUP1 PUSH4 0x8DA5CB5B EQ PUSH2 0x1E7 JUMPI PUSH1 0x0 DUP1 REVERT JUMPDEST DUP1 PUSH4 0x1ADC3213 EQ PUSH2 0x126 JUMPI DUP1 PUSH4 0x240028E8 EQ PUSH2 0x156 JUMPI DUP1 PUSH4 0x2A41E66C EQ PUSH2 0x189 JUMPI DUP1 PUSH4 0x487EDE04 EQ PUSH2 0x193 JUMPI JUMPDEST PUSH1 0x0 DUP1 REVERT JUMPDEST PUSH1 0x3 SLOAD PUSH2 0x139 SWAP1 PUSH1 0x1 PUSH1 0x1 PUSH1 0xA0 SHL SUB AND DUP2 JUMP JUMPDEST PUSH1 0x40 MLOAD PUSH1 0x1 PUSH1 0x1 PUSH1 0xA0 SHL SUB SWAP1 SWAP2 AND DUP2 MSTORE PUSH1 0x20 ADD JUMPDEST PUSH1 0x40 MLOAD DUP1 SWAP2 SUB SWAP1 RETURN JUMPDEST PUSH2 0x179 PUSH2 0x164 CALLDATASIZE PUSH1 0x4 PUSH2 0xDF8 JUMP JUMPDEST PUSH1 0x5 PUSH1 0x20 MSTORE PUSH1 0x0 SWAP1 DUP2 MSTORE PUSH1 0x40 SWAP1 KECCAK256 SLOAD PUSH1 0xFF AND DUP2 JUMP JUMPDEST PUSH1 0x40 MLOAD SWAP1 ISZERO ISZERO DUP2 MSTORE PUSH1 0x20 ADD PUSH2 0x14D JUMP JUMPDEST PUSH2 0x191 PUSH2 0x2F9 JUMP JUMPDEST STOP JUMPDEST PUSH2 0x191 PUSH2 0x1A1 CALLDATASIZE PUSH1 0x4 PUSH2 0xE1A JUMP JUMPDEST PUSH2 0x4B2 JUMP JUMPDEST PUSH2 0x191 PUSH2 0x1B4 CALLDATASIZE PUSH1 0x4 PUSH2 0xDF8 JUMP JUMPDEST PUSH2 0x598 JUMP JUMPDEST PUSH2 0x191 PUSH2 0x1C7 CALLDATASIZE PUSH1 0x4 PUSH2 0xDF8 JUMP JUMPDEST PUSH2 0x5C2 JUMP JUMPDEST PUSH2 0x191 PUSH2 0x7C2 JUMP JUMPDEST PUSH2 0x191 PUSH2 0x1E2 CALLDATASIZE PUSH1 0x4 PUSH2 0xE1A JUMP JUMPDEST PUSH2 0x7D6 JUMP JUMPDEST PUSH1 0x0 SLOAD PUSH1 0x1 PUSH1 0x1 PUSH1 0xA0 SHL SUB AND PUSH2 0x139 JUMP JUMPDEST PUSH2 0x139 PUSH32 0x0 DUP2 JUMP JUMPDEST PUSH2 0x191 PUSH2 0x22D CALLDATASIZE PUSH1 0x4 PUSH2 0xDF8 JUMP JUMPDEST PUSH2 0x873 JUMP JUMPDEST PUSH1 0x2 SLOAD PUSH2 0x139 SWAP1 PUSH1 0x1 PUSH1 0x1 PUSH1 0xA0 SHL SUB AND DUP2 JUMP JUMPDEST PUSH2 0x139 PUSH32 0x0 DUP2 JUMP JUMPDEST PUSH2 0x28C PUSH2 0x27A CALLDATASIZE PUSH1 0x4 PUSH2 0xDF8 JUMP JUMPDEST PUSH1 0x1 PUSH1 0x20 MSTORE PUSH1 0x0 SWAP1 DUP2 MSTORE PUSH1 0x40 SWAP1 KECCAK256 SLOAD DUP2 JUMP JUMPDEST PUSH1 0x40 MLOAD SWAP1 DUP2 MSTORE PUSH1 0x20 ADD PUSH2 0x14D JUMP JUMPDEST PUSH2 0x139 PUSH2 0x2A8 CALLDATASIZE PUSH1 0x4 PUSH2 0xE44 JUMP JUMPDEST PUSH2 0xAB3 JUMP JUMPDEST PUSH2 0x191 PUSH2 0x2BB CALLDATASIZE PUSH1 0x4 PUSH2 0xDF8 JUMP JUMPDEST PUSH2 0xADD JUMP JUMPDEST PUSH2 0x191 PUSH2 0x2CE CALLDATASIZE PUSH1 0x4 PUSH2 0xE1A JUMP JUMPDEST PUSH2 0xB94 JUMP JUMPDEST PUSH2 0x191 PUSH2 0x2E1 CALLDATASIZE PUSH1 0x4 PUSH2 0xDF8 JUMP JUMPDEST PUSH2 0xCFA JUMP JUMPDEST PUSH2 0x191 PUSH2 0x2F4 CALLDATASIZE PUSH1 0x4 PUSH2 0xDF8 JUMP JUMPDEST PUSH2 0xD35 JUMP JUMPDEST PUSH1 0x0 JUMPDEST PUSH1 0x4 SLOAD DUP2 LT ISZERO PUSH2 0x4AF JUMPI PUSH1 0x0 PUSH1 0x4 DUP3 DUP2 SLOAD DUP2 LT PUSH2 0x31B JUMPI PUSH2 0x31B PUSH2 0xE5D JUMP JUMPDEST PUSH1 0x0 SWAP2 DUP3 MSTORE PUSH1 0x20 DUP3 KECCAK256 ADD SLOAD PUSH1 0x40 MLOAD PUSH4 0x70A08231 PUSH1 0xE0 SHL DUP2 MSTORE ADDRESS PUSH1 0x4 DUP3 ADD MSTORE PUSH1 0x1 PUSH1 0x1 PUSH1 0xA0 SHL SUB SWAP1 SWAP2 AND SWAP3 POP DUP3 SWAP1 PUSH4 0x70A08231 SWAP1 PUSH1 0x24 ADD PUSH1 0x20 PUSH1 0x40 MLOAD DUP1 DUP4 SUB DUP2 DUP7 GAS STATICCALL ISZERO DUP1 ISZERO PUSH2 0x36E JUMPI RETURNDATASIZE PUSH1 0x0 DUP1 RETURNDATACOPY RETURNDATASIZE PUSH1 0x0 REVERT JUMPDEST POP POP POP POP PUSH1 0x40 MLOAD RETURNDATASIZE PUSH1 0x1F NOT PUSH1 0x1F DUP3 ADD AND DUP3 ADD DUP1 PUSH1 0x40 MSTORE POP DUP2 ADD SWAP1 PUSH2 0x392 SWAP2 SWAP1 PUSH2 0xE73 JUMP JUMPDEST PUSH1 0x1 PUSH1 0x1 PUSH1 0xA0 SHL SUB DUP4 AND PUSH1 0x0 SWAP1 DUP2 MSTORE PUSH1 0x1 PUSH1 0x20 MSTORE PUSH1 0x40 SWAP1 KECCAK256 SLOAD SWAP1 SWAP2 POP DUP1 DUP3 GT DUP1 ISZERO PUSH2 0x3C7 JUMPI POP PUSH1 0x3 SLOAD PUSH1 0x1 PUSH1 0x1 PUSH1 0xA0 SHL SUB AND ISZERO ISZERO JUMPDEST ISZERO PUSH2 0x499 JUMPI PUSH1 0x0 PUSH2 0x3D8 DUP3 DUP5 PUSH2 0xEA2 JUMP JUMPDEST PUSH1 0x3 SLOAD PUSH1 0x40 MLOAD PUSH4 0xA9059CBB PUSH1 0xE0 SHL DUP2 MSTORE PUSH1 0x1 PUSH1 0x1 PUSH1 0xA0 SHL SUB SWAP2 DUP3 AND PUSH1 0x4 DUP3 ADD MSTORE PUSH1 0x24 DUP2 ADD DUP4 SWAP1 MSTORE SWAP2 SWAP3 POP DUP6 AND SWAP1 PUSH4 0xA9059CBB SWAP1 PUSH1 0x44 ADD PUSH1 0x20 PUSH1 0x40 MLOAD DUP1 DUP4 SUB DUP2 PUSH1 0x0 DUP8 GAS CALL ISZERO DUP1 ISZERO PUSH2 0x42D JUMPI RETURNDATASIZE PUSH1 0x0 DUP1 RETURNDATACOPY RETURNDATASIZE PUSH1 0x0 REVERT JUMPDEST POP POP POP POP PUSH1 0x40 MLOAD RETURNDATASIZE PUSH1 0x1F NOT PUSH1 0x1F DUP3 ADD AND DUP3 ADD DUP1 PUSH1 0x40 MSTORE POP DUP2 ADD SWAP1 PUSH2 0x451 SWAP2 SWAP1 PUSH2 0xECB JUMP JUMPDEST POP PUSH1 0x3 SLOAD PUSH1 0x40 MLOAD DUP3 DUP2 MSTORE PUSH1 0x1 PUSH1 0x1 PUSH1 0xA0 SHL SUB SWAP2 DUP3 AND SWAP2 DUP7 AND SWAP1 PUSH32 0x85A896853D96EC4D7E8CD547C99CC6593F4CAD2EE614B254C3CE7E22C40CA410 SWAP1 PUSH1 0x20 ADD PUSH1 0x40 MLOAD DUP1 SWAP2 SUB SWAP1 LOG3 POP JUMPDEST POP POP POP DUP1 DUP1 PUSH2 0x4A7 SWAP1 PUSH2 0xEE6 JUMP JUMPDEST SWAP2 POP POP PUSH2 0x2FC JUMP JUMPDEST POP JUMP JUMPDEST PUSH1 0x2 SLOAD PUSH1 0x1 PUSH1 0x1 PUSH1 0xA0 SHL SUB AND CALLER EQ DUP1 PUSH2 0x4D5 JUMPI POP PUSH1 0x0 SLOAD PUSH1 0x1 PUSH1 0x1 PUSH1 0xA0 SHL SUB AND CALLER EQ JUMPDEST PUSH2 0x4FA JUMPI PUSH1 0x40 MLOAD PUSH3 0x461BCD PUSH1 0xE5 SHL DUP2 MSTORE PUSH1 0x4 ADD PUSH2 0x4F1 SWAP1 PUSH2 0xEFF JUMP JUMPDEST PUSH1 0x40 MLOAD DUP1 SWAP2 SUB SWAP1 REVERT JUMPDEST PUSH1 0x40 MLOAD PUSH4 0x1A4CA37B PUSH1 0xE2 SHL DUP2 MSTORE PUSH1 0x1 PUSH1 0x1 PUSH1 0xA0 SHL SUB DUP4 DUP2 AND PUSH1 0x4 DUP4 ADD MSTORE PUSH1 0x24 DUP3 ADD DUP4 SWAP1 MSTORE ADDRESS PUSH1 0x44 DUP4 ADD MSTORE PUSH32 0x0 AND SWAP1 PUSH4 0x69328DEC SWAP1 PUSH1 0x64 ADD PUSH1 0x20 PUSH1 0x40 MLOAD DUP1 DUP4 SUB DUP2 PUSH1 0x0 DUP8 GAS CALL ISZERO DUP1 ISZERO PUSH2 0x56F JUMPI RETURNDATASIZE PUSH1 0x0 DUP1 RETURNDATACOPY RETURNDATASIZE PUSH1 0x0 REVERT JUMPDEST POP POP POP POP PUSH1 0x40 MLOAD RETURNDATASIZE PUSH1 0x1F NOT PUSH1 0x1F DUP3 ADD AND DUP3 ADD DUP1 PUSH1 0x40 MSTORE POP DUP2 ADD SWAP1 PUSH2 0x593 SWAP2 SWAP1 PUSH2 0xE73 JUMP JUMPDEST POP POP POP JUMP JUMPDEST PUSH2 0x5A0 PUSH2 0xD5F JUMP JUMPDEST PUSH1 0x3 DUP1 SLOAD PUSH1 0x1 PUSH1 0x1 PUSH1 0xA0 SHL SUB NOT AND PUSH1 0x1 PUSH1 0x1 PUSH1 0xA0 SHL SUB SWAP3 SWAP1 SWAP3 AND SWAP2 SWAP1 SWAP2 OR SWAP1 SSTORE JUMP JUMPDEST PUSH1 0x2 SLOAD PUSH1 0x1 PUSH1 0x1 PUSH1 0xA0 SHL SUB AND CALLER EQ DUP1 PUSH2 0x5E5 JUMPI POP PUSH1 0x0 SLOAD PUSH1 0x1 PUSH1 0x1 PUSH1 0xA0 SHL SUB AND CALLER EQ JUMPDEST PUSH2 0x640 JUMPI PUSH1 0x40 MLOAD PUSH3 0x461BCD PUSH1 0xE5 SHL DUP2 MSTORE PUSH1 0x20 PUSH1 0x4 DUP3 ADD MSTORE PUSH1 0x26 PUSH1 0x24 DUP3 ADD MSTORE PUSH32 0x5661756C74526F75746572486F6F6B3A20556E617574686F72697A6564204658 PUSH1 0x44 DUP3 ADD MSTORE PUSH6 0x20636865636B PUSH1 0xD0 SHL PUSH1 0x64 DUP3 ADD MSTORE PUSH1 0x84 ADD PUSH2 0x4F1 JUMP JUMPDEST PUSH1 0x0 DUP1 PUSH1 0x0 PUSH32 0x0 PUSH1 0x1 PUSH1 0x1 PUSH1 0xA0 SHL SUB AND PUSH4 0x39A07B9C PUSH1 0x40 MLOAD DUP2 PUSH4 0xFFFFFFFF AND PUSH1 0xE0 SHL DUP2 MSTORE PUSH1 0x4 ADD PUSH1 0x60 PUSH1 0x40 MLOAD DUP1 DUP4 SUB DUP2 DUP7 GAS STATICCALL ISZERO DUP1 ISZERO PUSH2 0x6A3 JUMPI RETURNDATASIZE PUSH1 0x0 DUP1 RETURNDATACOPY RETURNDATASIZE PUSH1 0x0 REVERT JUMPDEST POP POP POP POP PUSH1 0x40 MLOAD RETURNDATASIZE PUSH1 0x1F NOT PUSH1 0x1F DUP3 ADD AND DUP3 ADD DUP1 PUSH1 0x40 MSTORE POP DUP2 ADD SWAP1 PUSH2 0x6C7 SWAP2 SWAP1 PUSH2 0xF4C JUMP JUMPDEST SWAP3 POP SWAP3 POP SWAP3 POP PUSH1 0x0 DUP4 ISZERO PUSH2 0x7BB JUMPI DUP3 ISZERO PUSH2 0x749 JUMPI DUP5 PUSH1 0x1 PUSH1 0x1 PUSH1 0xA0 SHL SUB AND PUSH32 0x8374E2765ED283F1E54C68F6C893EDE8363B41A02E94CC7E03A9D448417517A2 DUP3 PUSH1 0x40 MLOAD PUSH2 0x73C SWAP2 SWAP1 PUSH1 0x40 DUP1 DUP3 MSTORE PUSH1 0xB SWAP1 DUP3 ADD MSTORE PUSH11 0x526174654D6F766564557 PUSH1 0xAC SHL PUSH1 0x60 DUP3 ADD MSTORE PUSH1 0x20 DUP2 ADD SWAP2 SWAP1 SWAP2 MSTORE PUSH1 0x80 ADD SWAP1 JUMP JUMPDEST PUSH1 0x40 MLOAD DUP1 SWAP2 SUB SWAP1 LOG2 PUSH2 0x7BB JUMP JUMPDEST DUP2 ISZERO PUSH2 0x7BB JUMPI DUP5 PUSH1 0x1 PUSH1 0x1 PUSH1 0xA0 SHL SUB AND PUSH32 0x8374E2765ED283F1E54C68F6C893EDE8363B41A02E94CC7E03A9D448417517A2 DUP3 PUSH1 0x40 MLOAD PUSH2 0x7B2 SWAP2 SWAP1 PUSH1 0x40 DUP1 DUP3 MSTORE PUSH1 0xD SWAP1 DUP3 ADD MSTORE PUSH13 0x2930BA32A6B7BB32B22237BBB7 PUSH1 0x99 SHL PUSH1 0x60 DUP3 ADD MSTORE PUSH1 0x20 DUP2 ADD SWAP2 SWAP1 SWAP2 MSTORE PUSH1 0x80 ADD SWAP1 JUMP JUMPDEST PUSH1 0x40 MLOAD DUP1 SWAP2 SUB SWAP1 LOG2 JUMPDEST POP POP POP POP POP JUMP JUMPDEST PUSH2 0x7CA PUSH2 0xD5F JUMP JUMPDEST PUSH2 0x7D4 PUSH1 0x0 PUSH2 0xD8C JUMP JUMPDEST JUMP JUMPDEST PUSH2 0x7DE PUSH2 0xD5F JUMP JUMPDEST PUSH1 0x1 PUSH1 0x1 PUSH1 0xA0 SHL SUB DUP3 AND PUSH1 0x0 SWAP1 DUP2 MSTORE PUSH1 0x1 PUSH1 0x20 SWAP1 DUP2 MSTORE PUSH1 0x40 DUP1 DUP4 KECCAK256 DUP5 SWAP1 SSTORE PUSH1 0x5 SWAP1 SWAP2 MSTORE SWAP1 KECCAK256 SLOAD PUSH1 0xFF AND PUSH2 0x86F JUMPI PUSH1 0x4 DUP1 SLOAD PUSH1 0x1 DUP1 DUP3 ADD SWAP1 SWAP3 SSTORE PUSH32 0x8A35ACFBC15FF81A39AE7D344FD709F28E8600B4AA8C65C6B64BFE7FE36BD19B ADD DUP1 SLOAD PUSH1 0x1 PUSH1 0x1 PUSH1 0xA0 SHL SUB NOT AND PUSH1 0x1 PUSH1 0x1 PUSH1 0xA0 SHL SUB DUP6 AND SWAP1 DUP2 OR SWAP1 SWAP2 SSTORE PUSH1 0x0 SWAP1 DUP2 MSTORE PUSH1 0x5 PUSH1 0x20 MSTORE PUSH1 0x40 SWAP1 KECCAK256 DUP1 SLOAD PUSH1 0xFF NOT AND SWAP1 SWAP2 OR SWAP1 SSTORE JUMPDEST POP POP JUMP JUMPDEST PUSH1 0x2 SLOAD PUSH1 0x1 PUSH1 0x1 PUSH1 0xA0 SHL SUB AND CALLER EQ PUSH2 0x8EA JUMPI PUSH1 0x40 MLOAD PUSH3 0x461BCD PUSH1 0xE5 SHL DUP2 MSTORE PUSH1 0x20 PUSH1 0x4 DUP3 ADD MSTORE PUSH1 0x34 PUSH1 0x24 DUP3 ADD MSTORE PUSH32 0x5661756C74526F75746572486F6F6B3A204F6E6C79206D61696E207661756C74 PUSH1 0x44 DUP3 ADD MSTORE PUSH20 0x2063616E207472696767657220726F7574696E67 PUSH1 0x60 SHL PUSH1 0x64 DUP3 ADD MSTORE PUSH1 0x84 ADD PUSH2 0x4F1 JUMP JUMPDEST PUSH1 0x40 MLOAD PUSH4 0x70A08231 PUSH1 0xE0 SHL DUP2 MSTORE ADDRESS PUSH1 0x4 DUP3 ADD MSTORE PUSH1 0x0 SWAP1 PUSH1 0x1 PUSH1 0x1 PUSH1 0xA0 SHL SUB DUP4 AND SWAP1 PUSH4 0x70A08231 SWAP1 PUSH1 0x24 ADD PUSH1 0x20 PUSH1 0x40 MLOAD DUP1 DUP4 SUB DUP2 DUP7 GAS STATICCALL ISZERO DUP1 ISZERO PUSH2 0x931 JUMPI RETURNDATASIZE PUSH1 0x0 DUP1 RETURNDATACOPY RETURNDATASIZE PUSH1 0x0 REVERT JUMPDEST POP POP POP POP PUSH1 0x40 MLOAD RETURNDATASIZE PUSH1 0x1F NOT PUSH1 0x1F DUP3 ADD AND DUP3 ADD DUP1 PUSH1 0x40 MSTORE POP DUP2 ADD SWAP1 PUSH2 0x955 SWAP2 SWAP1 PUSH2 0xE73 JUMP JUMPDEST PUSH1 0x1 PUSH1 0x1 PUSH1 0xA0 SHL SUB DUP4 AND PUSH1 0x0 SWAP1 DUP2 MSTORE PUSH1 0x1 PUSH1 0x20 MSTORE PUSH1 0x40 SWAP1 KECCAK256 SLOAD SWAP1 SWAP2 POP DUP1 DUP3 GT ISZERO PUSH2 0x593 JUMPI PUSH1 0x0 PUSH2 0x985 DUP3 DUP5 PUSH2 0xEA2 JUMP JUMPDEST PUSH1 0x3 SLOAD SWAP1 SWAP2 POP PUSH1 0x1 PUSH1 0x1 PUSH1 0xA0 SHL SUB AND PUSH2 0x9F0 JUMPI PUSH1 0x40 MLOAD PUSH3 0x461BCD PUSH1 0xE5 SHL DUP2 MSTORE PUSH1 0x20 PUSH1 0x4 DUP3 ADD MSTORE PUSH1 0x27 PUSH1 0x24 DUP3 ADD MSTORE PUSH32 0x5661756C74526F75746572486F6F6B3A205969656C642070726F746F636F6C20 PUSH1 0x44 DUP3 ADD MSTORE PUSH7 0x1B9BDD081CD95D PUSH1 0xCA SHL PUSH1 0x64 DUP3 ADD MSTORE PUSH1 0x84 ADD PUSH2 0x4F1 JUMP JUMPDEST PUSH1 0x3 SLOAD PUSH1 0x40 MLOAD PUSH4 0xA9059CBB PUSH1 0xE0 SHL DUP2 MSTORE PUSH1 0x1 PUSH1 0x1 PUSH1 0xA0 SHL SUB SWAP2 DUP3 AND PUSH1 0x4 DUP3 ADD MSTORE PUSH1 0x24 DUP2 ADD DUP4 SWAP1 MSTORE SWAP1 DUP6 AND SWAP1 PUSH4 0xA9059CBB SWAP1 PUSH1 0x44 ADD PUSH1 0x20 PUSH1 0x40 MLOAD DUP1 DUP4 SUB DUP2 PUSH1 0x0 DUP8 GAS CALL ISZERO DUP1 ISZERO PUSH2 0xA43 JUMPI RETURNDATASIZE PUSH1 0x0 DUP1 RETURNDATACOPY RETURNDATASIZE PUSH1 0x0 REVERT JUMPDEST POP POP POP POP PUSH1 0x40 MLOAD RETURNDATASIZE PUSH1 0x1F NOT PUSH1 0x1F DUP3 ADD AND DUP3 ADD DUP1 PUSH1 0x40 MSTORE POP DUP2 ADD SWAP1 PUSH2 0xA67 SWAP2 SWAP1 PUSH2 0xECB JUMP JUMPDEST POP PUSH1 0x3 SLOAD PUSH1 0x40 MLOAD DUP3 DUP2 MSTORE PUSH1 0x1 PUSH1 0x1 PUSH1 0xA0 SHL SUB SWAP2 DUP3 AND SWAP2 DUP7 AND SWAP1 PUSH32 0x85A896853D96EC4D7E8CD547C99CC6593F4CAD2EE614B254C3CE7E22C40CA410 SWAP1 PUSH1 0x20 ADD PUSH1 0x40 MLOAD DUP1 SWAP2 SUB SWAP1 LOG3 POP POP POP POP JUMP JUMPDEST PUSH1 0x4 DUP2 DUP2 SLOAD DUP2 LT PUSH2 0xAC3 JUMPI PUSH1 0x0 DUP1 REVERT JUMPDEST PUSH1 0x0 SWAP2 DUP3 MSTORE PUSH1 0x20 SWAP1 SWAP2 KECCAK256 ADD SLOAD PUSH1 0x1 PUSH1 0x1 PUSH1 0xA0 SHL SUB AND SWAP1 POP DUP2 JUMP JUMPDEST PUSH1 0x2 SLOAD PUSH1 0x1 PUSH1 0x1 PUSH1 0xA0 SHL SUB AND CALLER EQ PUSH2 0xB5D JUMPI PUSH1 0x40 MLOAD PUSH3 0x461BCD PUSH1 0xE5 SHL DUP2 MSTORE PUSH1 0x20 PUSH1 0x4 DUP3 ADD MSTORE PUSH1 0x39 PUSH1 0x24 DUP3 ADD MSTORE PUSH32 0x5661756C74526F75746572486F6F6B3A204F6E6C79206D61696E207661756C74 PUSH1 0x44 DUP3 ADD MSTORE PUSH32 0x2063616E207472696767657220756E77696E642F726570617900000000000000 PUSH1 0x64 DUP3 ADD MSTORE PUSH1 0x84 ADD PUSH2 0x4F1 JUMP JUMPDEST PUSH1 0x40 MLOAD PUSH1 0x1 PUSH1 0x1 PUSH1 0xA0 SHL SUB DUP3 AND SWAP1 PUSH32 0xA581B4D9935B98081EC3947812358E67992B62E0261EC7135CB93A83A531FA15 SWAP1 PUSH1 0x0 SWAP1 LOG2 POP JUMP JUMPDEST PUSH1 0x2 SLOAD PUSH1 0x1 PUSH1 0x1 PUSH1 0xA0 SHL SUB AND CALLER EQ DUP1 PUSH2 0xBB7 JUMPI POP PUSH1 0x0 SLOAD PUSH1 0x1 PUSH1 0x1 PUSH1 0xA0 SHL SUB AND CALLER EQ JUMPDEST PUSH2 0xBD3 JUMPI PUSH1 0x40 MLOAD PUSH3 0x461BCD PUSH1 0xE5 SHL DUP2 MSTORE PUSH1 0x4 ADD PUSH2 0x4F1 SWAP1 PUSH2 0xEFF JUMP JUMPDEST PUSH1 0x40 MLOAD PUSH4 0x95EA7B3 PUSH1 0xE0 SHL DUP2 MSTORE PUSH1 0x1 PUSH1 0x1 PUSH1 0xA0 SHL SUB PUSH32 0x0 DUP2 AND PUSH1 0x4 DUP4 ADD MSTORE PUSH1 0x24 DUP3 ADD DUP4 SWAP1 MSTORE DUP4 AND SWAP1 PUSH4 0x95EA7B3 SWAP1 PUSH1 0x44 ADD PUSH1 0x20 PUSH1 0x40 MLOAD DUP1 DUP4 SUB DUP2 PUSH1 0x0 DUP8 GAS CALL ISZERO DUP1 ISZERO PUSH2 0xC42 JUMPI RETURNDATASIZE PUSH1 0x0 DUP1 RETURNDATACOPY RETURNDATASIZE PUSH1 0x0 REVERT JUMPDEST POP POP POP POP PUSH1 0x40 MLOAD RETURNDATASIZE PUSH1 0x1F NOT PUSH1 0x1F DUP3 ADD AND DUP3 ADD DUP1 PUSH1 0x40 MSTORE POP DUP2 ADD SWAP1 PUSH2 0xC66 SWAP2 SWAP1 PUSH2 0xECB JUMP JUMPDEST POP PUSH1 0x40 MLOAD PUSH4 0x617BA037 PUSH1 0xE0 SHL DUP2 MSTORE PUSH1 0x1 PUSH1 0x1 PUSH1 0xA0 SHL SUB DUP4 DUP2 AND PUSH1 0x4 DUP4 ADD MSTORE PUSH1 0x24 DUP3 ADD DUP4 SWAP1 MSTORE ADDRESS PUSH1 0x44 DUP4 ADD MSTORE PUSH1 0x0 PUSH1 0x64 DUP4 ADD MSTORE PUSH32 0x0 AND SWAP1 PUSH4 0x617BA037 SWAP1 PUSH1 0x84 ADD PUSH1 0x0 PUSH1 0x40 MLOAD DUP1 DUP4 SUB DUP2 PUSH1 0x0 DUP8 DUP1 EXTCODESIZE ISZERO DUP1 ISZERO PUSH2 0xCDE JUMPI PUSH1 0x0 DUP1 REVERT JUMPDEST POP GAS CALL ISZERO DUP1 ISZERO PUSH2 0xCF2 JUMPI RETURNDATASIZE PUSH1 0x0 DUP1 RETURNDATACOPY RETURNDATASIZE PUSH1 0x0 REVERT JUMPDEST POP POP POP POP POP POP JUMP JUMPDEST PUSH2 0xD02 PUSH2 0xD5F JUMP JUMPDEST PUSH1 0x1 PUSH1 0x1 PUSH1 0xA0 SHL SUB DUP2 AND PUSH2 0xD2C JUMPI PUSH1 0x40 MLOAD PUSH4 0x1E4FBDF7 PUSH1 0xE0 SHL DUP2 MSTORE PUSH1 0x0 PUSH1 0x4 DUP3 ADD MSTORE PUSH1 0x24 ADD PUSH2 0x4F1 JUMP JUMPDEST PUSH2 0x4AF DUP2 PUSH2 0xD8C JUMP JUMPDEST PUSH2 0xD3D PUSH2 0xD5F JUMP JUMPDEST PUSH1 0x2 DUP1 SLOAD PUSH1 0x1 PUSH1 0x1 PUSH1 0xA0 SHL SUB NOT AND PUSH1 0x1 PUSH1 0x1 PUSH1 0xA0 SHL SUB SWAP3 SWAP1 SWAP3 AND SWAP2 SWAP1 SWAP2 OR SWAP1 SSTORE JUMP JUMPDEST PUSH1 0x0 SLOAD PUSH1 0x1 PUSH1 0x1 PUSH1 0xA0 SHL SUB AND CALLER EQ PUSH2 0x7D4 JUMPI PUSH1 0x40 MLOAD PUSH4 0x118CDAA7 PUSH1 0xE0 SHL DUP2 MSTORE CALLER PUSH1 0x4 DUP3 ADD MSTORE PUSH1 0x24 ADD PUSH2 0x4F1 JUMP JUMPDEST PUSH1 0x0 DUP1 SLOAD PUSH1 0x1 PUSH1 0x1 PUSH1 0xA0 SHL SUB DUP4 DUP2 AND PUSH1 0x1 PUSH1 0x1 PUSH1 0xA0 SHL SUB NOT DUP4 AND DUP2 OR DUP5 SSTORE PUSH1 0x40 MLOAD SWAP2 SWAP1 SWAP3 AND SWAP3 DUP4 SWAP2 PUSH32 0x8BE0079C531659141344CD1FD0A4F28419497F9722A3DAAFE3B4186F6B6457E0 SWAP2 SWAP1 LOG3 POP POP JUMP JUMPDEST DUP1 CALLDATALOAD PUSH1 0x1 PUSH1 0x1 PUSH1 0xA0 SHL SUB DUP2 AND DUP2 EQ PUSH2 0xDF3 JUMPI PUSH1 0x0 DUP1 REVERT JUMPDEST SWAP2 SWAP1 POP JUMP JUMPDEST PUSH1 0x0 PUSH1 0x20 DUP3 DUP5 SUB SLT ISZERO PUSH2 0xE0A JUMPI PUSH1 0x0 DUP1 REVERT JUMPDEST PUSH2 0xE13 DUP3 PUSH2 0xDDC JUMP JUMPDEST SWAP4 SWAP3 POP POP POP JUMP JUMPDEST PUSH1 0x0 DUP1 PUSH1 0x40 DUP4 DUP6 SUB SLT ISZERO PUSH2 0xE2D JUMPI PUSH1 0x0 DUP1 REVERT JUMPDEST PUSH2 0xE36 DUP4 PUSH2 0xDDC JUMP JUMPDEST SWAP5 PUSH1 0x20 SWAP4 SWAP1 SWAP4 ADD CALLDATALOAD SWAP4 POP POP POP JUMP JUMPDEST PUSH1 0x0 PUSH1 0x20 DUP3 DUP5 SUB SLT ISZERO PUSH2 0xE56 JUMPI PUSH1 0x0 DUP1 REVERT JUMPDEST POP CALLDATALOAD SWAP2 SWAP1 POP JUMP JUMPDEST PUSH4 0x4E487B71 PUSH1 0xE0 SHL PUSH1 0x0 MSTORE PUSH1 0x32 PUSH1 0x4 MSTORE PUSH1 0x24 PUSH1 0x0 REVERT JUMPDEST PUSH1 0x0 PUSH1 0x20 DUP3 DUP5 SUB SLT ISZERO PUSH2 0xE85 JUMPI PUSH1 0x0 DUP1 REVERT JUMPDEST POP MLOAD SWAP2 SWAP1 POP JUMP JUMPDEST PUSH4 0x4E487B71 PUSH1 0xE0 SHL PUSH1 0x0 MSTORE PUSH1 0x11 PUSH1 0x4 MSTORE PUSH1 0x24 PUSH1 0x0 REVERT JUMPDEST DUP2 DUP2 SUB DUP2 DUP2 GT ISZERO PUSH2 0xEB5 JUMPI PUSH2 0xEB5 PUSH2 0xE8C JUMP JUMPDEST SWAP3 SWAP2 POP POP JUMP JUMPDEST DUP1 MLOAD DUP1 ISZERO ISZERO DUP2 EQ PUSH2 0xDF3 JUMPI PUSH1 0x0 DUP1 REVERT JUMPDEST PUSH1 0x0 PUSH1 0x20 DUP3 DUP5 SUB SLT ISZERO PUSH2 0xEDD JUMPI PUSH1 0x0 DUP1 REVERT JUMPDEST PUSH2 0xE13 DUP3 PUSH2 0xEBB JUMP JUMPDEST PUSH1 0x0 PUSH1 0x1 DUP3 ADD PUSH2 0xEF8 JUMPI PUSH2 0xEF8 PUSH2 0xE8C JUMP JUMPDEST POP PUSH1 0x1 ADD SWAP1 JUMP JUMPDEST PUSH1 0x20 DUP1 DUP3 MSTORE PUSH1 0x2D SWAP1 DUP3 ADD MSTORE PUSH32 0x5661756C74526F75746572486F6F6B3A204F6E6C79207661756C74206F72206F PUSH1 0x40 DUP3 ADD MSTORE PUSH13 0x1DDB995C8818D85B8818D85B1B PUSH1 0x9A SHL PUSH1 0x60 DUP3 ADD MSTORE PUSH1 0x80 ADD SWAP1 JUMP JUMPDEST PUSH1 0x0 DUP1 PUSH1 0x0 PUSH1 0x60 DUP5 DUP7 SUB SLT ISZERO PUSH2 0xF61 JUMPI PUSH1 0x0 DUP1 REVERT JUMPDEST PUSH2 0xF6A DUP5 PUSH2 0xEBB JUMP JUMPDEST SWAP3 POP PUSH2 0xF78 PUSH1 0x20 DUP6 ADD PUSH2 0xEBB JUMP JUMPDEST SWAP2 POP PUSH2 0xF86 PUSH1 0x40 DUP6 ADD PUSH2 0xEBB JUMP JUMPDEST SWAP1 POP SWAP3 POP SWAP3 POP SWAP3 JUMP INVALID LOG2 PUSH5 0x6970667358 0x22 SLT KECCAK256 0xAA 0xDF 0xC0 0xE 0xB2 0xEC 0xC4 BALANCE 0xB6 0xDC 0xAC 0x4F 0x25 0xE1 LOG3 AND CALLVALUE MSTORE DELEGATECALL LOG1 PUSH25 0x51EB9BDDE3AE725568CEF164736F6C63430008140033000000 "},"methodIdentifiers":{"aavePool()":"a03e4bc3","checkAndRouteFunds(address)":"ae7ced22","checkFXVolatilityAndHedge(address)":"673747cb","depositToAave(address,uint256)":"eeb149e7","isSupportedToken(address)":"240028e8","keeperRouteAll()":"2a41e66c","mainVault()":"b081ca7e","onClaimUnwindAndRepay(address)":"e11ac333","owner()":"8da5cb5b","rateVolatilityOracle()":"b8175f3f","renounceOwnership()":"715018a6","setMainVaultAddress(address)":"fc929c3e","setTokenThreshold(address,uint256)":"8bb39802","setYieldProtocolAddress(address)":"65da9b05","supportedTokens(uint256)":"c6255626","tokenThresholds(address)":"bba67231","transferOwnership(address)":"f2fde38b","withdrawFromAave(address,uint256)":"487ede04","yieldProtocolAddress()":"1adc3213"}}}}}