{"contracts/MockRateLockOracle.sol":{"MockRateLockOracle":{"abi":[{"inputs":[{"internalType":"uint256","name":"_initialRate","type":"uint256"}],"stateMutability":"nonpayable","type":"constructor"},{"inputs":[{"internalType":"address","name":"fromToken","type":"address"},{"internalType":"address","name":"toToken","type":"address"}],"name":"getRate","outputs":[{"internalType":"uint256","name":"","type":"uint256"}],"stateMutability":"view","type":"function"},{"inputs":[{"internalType":"uint256","name":"_newRate","type":"uint256"}],"name":"setRate","outputs":[],"stateMutability":"nonpayable","type":"function"}],"evm":{"bytecode":{"linkReferences":{},"object":"608060405234801561001057600080fd5b5060405161016438038061016483398101604081905261002f91610037565b600055610050565b60006020828403121561004957600080fd5b5051919050565b6101058061005f6000396000f3fe6080604052348015600f57600080fd5b506004361060325760003560e01c806334fcf437146037578063379b87ea146049575b600080fd5b60476042366004606e565b600055565b005b605c605436600460a1565b505060005490565b60405190815260200160405180910390f35b600060208284031215607f57600080fd5b5035919050565b80356001600160a01b0381168114609c57600080fd5b919050565b6000806040838503121560b357600080fd5b60ba836086565b915060c6602084016086565b9050925092905056fea26469706673582212204786fbf6d9479f11c0a7bbf0f42543888419de083469235e83eeff8d2a45253364736f6c63430008140033","opcodes":"PUSH1 0x80 PUSH1 0x40 MSTORE CALLVALUE DUP1 ISZERO PUSH2 0x10 JUMPI PUSH1 0x0 DUP1 REVERT JUMPDEST POP PUSH1 0x40 MLOAD PUSH2 0x164 CODESIZE SUB DUP1 PUSH2 0x164 DUP4 CODECOPY DUP2 ADD PUSH1 0x40 DUP2 SWAP1 MSTORE PUSH2 0x2F SWAP2 PUSH2 0x37 JUMP JUMPDEST PUSH1 0x0 SSTORE PUSH2 0x50 JUMP JUMPDEST PUSH1 0x0 PUSH1 0x20 DUP3 DUP5 SUB SLT ISZERO PUSH2 0x49 JUMPI PUSH1 0x0 DUP1 REVERT JUMPDEST POP MLOAD SWAP2 SWAP1 POP JUMP JUMPDEST PUSH2 0x105 DUP1 PUSH2 0x5F PUSH1 0x0 CODECOPY PUSH1 0x0 RETURN INVALID PUSH1 0x80 PUSH1 0x40 MSTORE CALLVALUE DUP1 ISZERO PUSH1 0xF JUMPI PUSH1 0x0 DUP1 REVERT JUMPDEST POP PUSH1 0x4 CALLDATASIZE LT PUSH1 0x32 JUMPI PUSH1 0x0 CALLDATALOAD PUSH1 0xE0 SHR DUP1 PUSH4 0x34FCF437 EQ PUSH1 0x37 JUMPI DUP1 PUSH4 0x379B87EA EQ PUSH1 0x49 JUMPI JUMPDEST PUSH1 0x0 DUP1 REVERT JUMPDEST PUSH1 0x47 PUSH1 0x42 CALLDATASIZE PUSH1 0x4 PUSH1 0x6E JUMP JUMPDEST PUSH1 0x0 SSTORE JUMP JUMPDEST STOP JUMPDEST PUSH1 0x5C PUSH1 0x54 CALLDATASIZE PUSH1 0x4 PUSH1 0xA1 JUMP JUMPDEST POP POP PUSH1 0x0 SLOAD SWAP1 JUMP JUMPDEST PUSH1 0x40 MLOAD SWAP1 DUP2 MSTORE PUSH1 0x20 ADD PUSH1 0x40 MLOAD DUP1 SWAP2 SUB SWAP1 RETURN JUMPDEST PUSH1 0x0 PUSH1 0x20 DUP3 DUP5 SUB SLT ISZERO PUSH1 0x7F JUMPI PUSH1 0x0 DUP1 REVERT JUMPDEST POP CALLDATALOAD SWAP2 SWAP1 POP JUMP JUMPDEST DUP1 CALLDATALOAD PUSH1 0x1 PUSH1 0x1 PUSH1 0xA0 SHL SUB DUP2 AND DUP2 EQ PUSH1 0x9C JUMPI PUSH1 0x0 DUP1 REVERT JUMPDEST SWAP2 SWAP1 POP JUMP JUMPDEST PUSH1 0x0 DUP1 PUSH1 0x40 DUP4 DUP6 SUB SLT ISZERO PUSH1 0xB3 JUMPI PUSH1 0x0 DUP1 REVERT JUMPDEST PUSH1 0xBA DUP4 PUSH1 0x86 JUMP JUMPDEST SWAP2 POP PUSH1 0xC6 PUSH1 0x20 DUP5 ADD PUSH1 0x86 JUMP JUMPDEST SWAP1 POP SWAP3 POP SWAP3 SWAP1 POP JUMP INVALID LOG2 PUSH5 0x6970667358 0x22 SLT KECCAK256 SELFBALANCE DUP7 0xFB 0xF6 0xD9 SELFBALANCE SWAP16 GT 0xC0 0xA7 0xBB CREATE DELEGATECALL 0x25 NUMBER DUP9 DUP5 NOT 0xDE ADDMOD CALLVALUE PUSH10 0x235E83EEFF8D2A452533 PUSH5 0x736F6C6343 STOP ADDMOD EQ STOP CALLER "},"methodIdentifiers":{"getRate(address,address)":"379b87ea","setRate(uint256)":"34fcf437"}}}}}