{
  "_format": "hh-sol-artifact-1",
  "contractName": "RateVolatilityOracle",
  "sourceName": "contracts/RateVolatilityOracle.sol",
  "abi": [
    {
      "inputs": [
        {
          "internalType": "address",
          "name": "_priceFeedAddress",
          "type": "address"
        },
        {
          "internalType": "uint256",
          "name": "_volatilityThresholdPercentage",
          "type": "uint256"
        }
      ],
      "stateMutability": "nonpayable",
      "type": "constructor"
    },
    {
      "inputs": [
        {
          "internalType": "address",
          "name": "owner",
          "type": "address"
        }
      ],
      "name": "OwnableInvalidOwner",
      "type": "error"
    },
    {
      "inputs": [
        {
          "internalType": "address",
          "name": "account",
          "type": "address"
        }
      ],
      "name": "OwnableUnauthorizedAccount",
      "type": "error"
    },
    {
      "anonymous": false,
      "inputs": [
        {
          "indexed": true,
          "internalType": "address",
          "name": "previousOwner",
          "type": "address"
        },
        {
          "indexed": true,
          "internalType": "address",
          "name": "newOwner",
          "type": "address"
        }
      ],
      "name": "OwnershipTransferred",
      "type": "event"
    },
    {
      "anonymous": false,
      "inputs": [
        {
          "indexed": false,
          "internalType": "int256",
          "name": "currentRate",
          "type": "int256"
        },
        {
          "indexed": false,
          "internalType": "uint256",
          "name": "initialRate",
          "type": "uint256"
        },
        {
          "indexed": false,
          "internalType": "uint256",
          "name": "volatilityThreshold",
          "type": "uint256"
        },
        {
          "indexed": false,
          "internalType": "bool",
          "name": "movedUp",
          "type": "bool"
        },
        {
          "indexed": false,
          "internalType": "bool",
          "name": "movedDown",
          "type": "bool"
        }
      ],
      "name": "PriceVolatilityDetected",
      "type": "event"
    },
    {
      "inputs": [],
      "name": "getLatestPrice",
      "outputs": [
        {
          "internalType": "int256",
          "name": "",
          "type": "int256"
        }
      ],
      "stateMutability": "view",
      "type": "function"
    },
    {
      "inputs": [],
      "name": "hasRateMovedBeyondThreshold",
      "outputs": [
        {
          "internalType": "bool",
          "name": "",
          "type": "bool"
        },
        {
          "internalType": "bool",
          "name": "",
          "type": "bool"
        },
        {
          "internalType": "bool",
          "name": "",
          "type": "bool"
        }
      ],
      "stateMutability": "view",
      "type": "function"
    },
    {
      "inputs": [],
      "name": "initialRate",
      "outputs": [
        {
          "internalType": "uint256",
          "name": "",
          "type": "uint256"
        }
      ],
      "stateMutability": "view",
      "type": "function"
    },
    {
      "inputs": [],
      "name": "owner",
      "outputs": [
        {
          "internalType": "address",
          "name": "",
          "type": "address"
        }
      ],
      "stateMutability": "view",
      "type": "function"
    },
    {
      "inputs": [],
      "name": "renounceOwnership",
      "outputs": [],
      "stateMutability": "nonpayable",
      "type": "function"
    },
    {
      "inputs": [],
      "name": "setInitialRate",
      "outputs": [],
      "stateMutability": "nonpayable",
      "type": "function"
    },
    {
      "inputs": [
        {
          "internalType": "uint256",
          "name": "_rate",
          "type": "uint256"
        }
      ],
      "name": "setInitialRateManual",
      "outputs": [],
      "stateMutability": "nonpayable",
      "type": "function"
    },
    {
      "inputs": [
        {
          "internalType": "uint256",
          "name": "_percentage",
          "type": "uint256"
        }
      ],
      "name": "setVolatilityThresholdPercentage",
      "outputs": [],
      "stateMutability": "nonpayable",
      "type": "function"
    },
    {
      "inputs": [
        {
          "internalType": "address",
          "name": "newOwner",
          "type": "address"
        }
      ],
      "name": "transferOwnership",
      "outputs": [],
      "stateMutability": "nonpayable",
      "type": "function"
    },
    {
      "inputs": [],
      "name": "volatilityThresholdPercentage",
      "outputs": [
        {
          "internalType": "uint256",
          "name": "",
          "type": "uint256"
        }
      ],
      "stateMutability": "view",
      "type": "function"
    }
  ],
  "bytecode": "0x608060405234801561001057600080fd5b5060405161075e38038061075e83398101604081905261002f916100d8565b338061005557604051631e4fbdf760e01b81526000600482015260240160405180910390fd5b61005e81610088565b50600180546001600160a01b0319166001600160a01b039390931692909217909155600355610112565b600080546001600160a01b038381166001600160a01b0319831681178455604051919092169283917f8be0079c531659141344cd1fd0a4f28419497f9722a3daafe3b4186f6b6457e09190a35050565b600080604083850312156100eb57600080fd5b82516001600160a01b038116811461010257600080fd5b6020939093015192949293505050565b61063d806101216000396000f3fe608060405234801561001057600080fd5b506004361061009e5760003560e01c80638da5cb5b116100665780638da5cb5b1461010b5780638e15f473146101265780639e51051f1461012e578063e3f96a3714610137578063f2fde38b1461014a57600080fd5b80630a2431bc146100a35780631e640b4c146100ad57806335ca58a1146100c957806339a07b9c146100dc578063715018a614610103575b600080fd5b6100ab61015d565b005b6100b660035481565b6040519081526020015b60405180910390f35b6100ab6100d73660046104d4565b610249565b6100e4610251565b60408051931515845291151560208401521515908201526060016100c0565b6100ab61030a565b6000546040516001600160a01b0390911681526020016100c0565b6100b661031e565b6100b660025481565b6100ab6101453660046104d4565b6103a3565b6100ab6101583660046104ed565b610419565b610165610457565b60015460408051633fabe5a360e21b815290516000926001600160a01b03169163feaf968c9160048083019260a09291908290030181865afa1580156101af573d6000803e3d6000fd5b505050506040513d601f19601f820116820180604052508101906101d3919061053c565b505050915050600081136102445760405162461bcd60e51b815260206004820152602d60248201527f52617465566f6c6174696c6974794f7261636c653a20496e76616c696420707260448201526c1a58d948199c9bdb4819995959609a1b60648201526084015b60405180910390fd5b600255565b610244610457565b600080600060025460000361026c5750600092839250829150565b600061027661031e565b90508060000361028e57506000938493508392509050565b60035481906000906064906102a390826105a2565b6002546102b091906105bb565b6102ba91906105d2565b90506000606460035460646102cf91906105f4565b6002546102dc91906105bb565b6102e691906105d2565b9050818311818410600082806102f95750815b9a9299509097509095505050505050565b610312610457565b61031c6000610484565b565b600080600160009054906101000a90046001600160a01b03166001600160a01b031663feaf968c6040518163ffffffff1660e01b815260040160a060405180830381865afa158015610374573d6000803e3d6000fd5b505050506040513d601f19601f82011682018060405250810190610398919061053c565b509195945050505050565b6103ab610457565b6000811180156103bc575060648111155b6104145760405162461bcd60e51b815260206004820152602360248201527f5468726573686f6c64206d757374206265206265747765656e203120616e642060448201526203130360ec1b606482015260840161023b565b600355565b610421610457565b6001600160a01b03811661044b57604051631e4fbdf760e01b81526000600482015260240161023b565b61045481610484565b50565b6000546001600160a01b0316331461031c5760405163118cdaa760e01b815233600482015260240161023b565b600080546001600160a01b038381166001600160a01b0319831681178455604051919092169283917f8be0079c531659141344cd1fd0a4f28419497f9722a3daafe3b4186f6b6457e09190a35050565b6000602082840312156104e657600080fd5b5035919050565b6000602082840312156104ff57600080fd5b81356001600160a01b038116811461051657600080fd5b9392505050565b805169ffffffffffffffffffff8116811461053757600080fd5b919050565b600080600080600060a0868803121561055457600080fd5b61055d8661051d565b94506020860151935060408601519250606086015191506105806080870161051d565b90509295509295909350565b634e487b7160e01b600052601160045260246000fd5b808201808211156105b5576105b561058c565b92915050565b80820281158282048414176105b5576105b561058c565b6000826105ef57634e487b7160e01b600052601260045260246000fd5b500490565b818103818111156105b5576105b561058c56fea2646970667358221220881e7e00aeb99d861698f797c967cbb58773036f40bfc33998820c585aa551fe64736f6c63430008140033",
  "linkReferences": {},
  "deployedLinkReferences": {}
}