{
  "_format": "hh-sol-artifact-1",
  "contractName": "VaultRouterHook",
  "sourceName": "contracts/VaultRouterHook.sol",
  "abi": [
    {
      "inputs": [
        {
          "internalType": "address",
          "name": "_aavePoolAddress",
          "type": "address"
        },
        {
          "internalType": "address",
          "name": "_mainVaultAddress",
          "type": "address"
        },
        {
          "internalType": "address",
          "name": "_rateVolatilityOracleAddress",
          "type": "address"
        }
      ],
      "stateMutability": "nonpayable",
      "type": "constructor"
    },
    {
      "inputs": [
        {
          "internalType": "address",
          "name": "owner",
          "type": "address"
        }
      ],
      "name": "OwnableInvalidOwner",
      "type": "error"
    },
    {
      "inputs": [
        {
          "internalType": "address",
          "name": "account",
          "type": "address"
        }
      ],
      "name": "OwnableUnauthorizedAccount",
      "type": "error"
    },
    {
      "anonymous": false,
      "inputs": [
        {
          "indexed": true,
          "internalType": "address",
          "name": "token",
          "type": "address"
        }
      ],
      "name": "ClaimUnwindAndRepay",
      "type": "event"
    },
    {
      "anonymous": false,
      "inputs": [
        {
          "indexed": true,
          "internalType": "address",
          "name": "token",
          "type": "address"
        },
        {
          "indexed": false,
          "internalType": "uint256",
          "name": "amount",
          "type": "uint256"
        },
        {
          "indexed": true,
          "internalType": "address",
          "name": "yieldProtocol",
          "type": "address"
        }
      ],
      "name": "FundsRouted",
      "type": "event"
    },
    {
      "anonymous": false,
      "inputs": [
        {
          "indexed": true,
          "internalType": "address",
          "name": "asset",
          "type": "address"
        },
        {
          "indexed": false,
          "internalType": "string",
          "name": "actionType",
          "type": "string"
        },
        {
          "indexed": false,
          "internalType": "uint256",
          "name": "amount",
          "type": "uint256"
        }
      ],
      "name": "HedgingActionTriggered",
      "type": "event"
    },
    {
      "anonymous": false,
      "inputs": [
        {
          "indexed": true,
          "internalType": "address",
          "name": "previousOwner",
          "type": "address"
        },
        {
          "indexed": true,
          "internalType": "address",
          "name": "newOwner",
          "type": "address"
        }
      ],
      "name": "OwnershipTransferred",
      "type": "event"
    },
    {
      "inputs": [],
      "name": "aavePool",
      "outputs": [
        {
          "internalType": "contract IPool",
          "name": "",
          "type": "address"
        }
      ],
      "stateMutability": "view",
      "type": "function"
    },
    {
      "inputs": [
        {
          "internalType": "address",
          "name": "token",
          "type": "address"
        }
      ],
      "name": "checkAndRouteFunds",
      "outputs": [],
      "stateMutability": "nonpayable",
      "type": "function"
    },
    {
      "inputs": [
        {
          "internalType": "address",
          "name": "volatileAsset",
          "type": "address"
        }
      ],
      "name": "checkFXVolatilityAndHedge",
      "outputs": [],
      "stateMutability": "nonpayable",
      "type": "function"
    },
    {
      "inputs": [
        {
          "internalType": "address",
          "name": "asset",
          "type": "address"
        },
        {
          "internalType": "uint256",
          "name": "amount",
          "type": "uint256"
        }
      ],
      "name": "depositToAave",
      "outputs": [],
      "stateMutability": "nonpayable",
      "type": "function"
    },
    {
      "inputs": [
        {
          "internalType": "address",
          "name": "",
          "type": "address"
        }
      ],
      "name": "isSupportedToken",
      "outputs": [
        {
          "internalType": "bool",
          "name": "",
          "type": "bool"
        }
      ],
      "stateMutability": "view",
      "type": "function"
    },
    {
      "inputs": [],
      "name": "keeperRouteAll",
      "outputs": [],
      "stateMutability": "nonpayable",
      "type": "function"
    },
    {
      "inputs": [],
      "name": "mainVault",
      "outputs": [
        {
          "internalType": "address",
          "name": "",
          "type": "address"
        }
      ],
      "stateMutability": "view",
      "type": "function"
    },
    {
      "inputs": [
        {
          "internalType": "address",
          "name": "token",
          "type": "address"
        }
      ],
      "name": "onClaimUnwindAndRepay",
      "outputs": [],
      "stateMutability": "nonpayable",
      "type": "function"
    },
    {
      "inputs": [],
      "name": "owner",
      "outputs": [
        {
          "internalType": "address",
          "name": "",
          "type": "address"
        }
      ],
      "stateMutability": "view",
      "type": "function"
    },
    {
      "inputs": [],
      "name": "rateVolatilityOracle",
      "outputs": [
        {
          "internalType": "contract RateVolatilityOracle",
          "name": "",
          "type": "address"
        }
      ],
      "stateMutability": "view",
      "type": "function"
    },
    {
      "inputs": [],
      "name": "renounceOwnership",
      "outputs": [],
      "stateMutability": "nonpayable",
      "type": "function"
    },
    {
      "inputs": [
        {
          "internalType": "address",
          "name": "_mainVault",
          "type": "address"
        }
      ],
      "name": "setMainVaultAddress",
      "outputs": [],
      "stateMutability": "nonpayable",
      "type": "function"
    },
    {
      "inputs": [
        {
          "internalType": "address",
          "name": "token",
          "type": "address"
        },
        {
          "internalType": "uint256",
          "name": "threshold",
          "type": "uint256"
        }
      ],
      "name": "setTokenThreshold",
      "outputs": [],
      "stateMutability": "nonpayable",
      "type": "function"
    },
    {
      "inputs": [
        {
          "internalType": "address",
          "name": "_yieldProtocolAddress",
          "type": "address"
        }
      ],
      "name": "setYieldProtocolAddress",
      "outputs": [],
      "stateMutability": "nonpayable",
      "type": "function"
    },
    {
      "inputs": [
        {
          "internalType": "uint256",
          "name": "",
          "type": "uint256"
        }
      ],
      "name": "supportedTokens",
      "outputs": [
        {
          "internalType": "address",
          "name": "",
          "type": "address"
        }
      ],
      "stateMutability": "view",
      "type": "function"
    },
    {
      "inputs": [
        {
          "internalType": "address",
          "name": "",
          "type": "address"
        }
      ],
      "name": "tokenThresholds",
      "outputs": [
        {
          "internalType": "uint256",
          "name": "",
          "type": "uint256"
        }
      ],
      "stateMutability": "view",
      "type": "function"
    },
    {
      "inputs": [
        {
          "internalType": "address",
          "name": "newOwner",
          "type": "address"
        }
      ],
      "name": "transferOwnership",
      "outputs": [],
      "stateMutability": "nonpayable",
      "type": "function"
    },
    {
      "inputs": [
        {
          "internalType": "address",
          "name": "asset",
          "type": "address"
        },
        {
          "internalType": "uint256",
          "name": "amount",
          "type": "uint256"
        }
      ],
      "name": "withdrawFromAave",
      "outputs": [],
      "stateMutability": "nonpayable",
      "type": "function"
    },
    {
      "inputs": [],
      "name": "yieldProtocolAddress",
      "outputs": [
        {
          "internalType": "address",
          "name": "",
          "type": "address"
        }
      ],
      "stateMutability": "view",
      "type": "function"
    }
  ],
  "bytecode": "0x60c060405234801561001057600080fd5b506040516200114638038062001146833981016040819052610031916100fc565b338061005757604051631e4fbdf760e01b81526000600482015260240160405180910390fd5b61006081610090565b506001600160a01b03928316608052600280546001600160a01b031916928416929092179091551660a05261013f565b600080546001600160a01b038381166001600160a01b0319831681178455604051919092169283917f8be0079c531659141344cd1fd0a4f28419497f9722a3daafe3b4186f6b6457e09190a35050565b80516001600160a01b03811681146100f757600080fd5b919050565b60008060006060848603121561011157600080fd5b61011a846100e0565b9250610128602085016100e0565b9150610136604085016100e0565b90509250925092565b60805160a051610fc5620001816000396000818161024a01526106470152600081816101fd0152818161052601528181610bea0152610c9a0152610fc56000f3fe608060405234801561001057600080fd5b50600436106101215760003560e01c8063a03e4bc3116100ad578063c625562611610071578063c62556261461029a578063e11ac333146102ad578063eeb149e7146102c0578063f2fde38b146102d3578063fc929c3e146102e657600080fd5b8063a03e4bc3146101f8578063ae7ced221461021f578063b081ca7e14610232578063b8175f3f14610245578063bba672311461026c57600080fd5b806365da9b05116100f457806365da9b05146101a6578063673747cb146101b9578063715018a6146101cc5780638bb39802146101d45780638da5cb5b146101e757600080fd5b80631adc321314610126578063240028e8146101565780632a41e66c14610189578063487ede0414610193575b600080fd5b600354610139906001600160a01b031681565b6040516001600160a01b0390911681526020015b60405180910390f35b610179610164366004610df8565b60056020526000908152604090205460ff1681565b604051901515815260200161014d565b6101916102f9565b005b6101916101a1366004610e1a565b6104b2565b6101916101b4366004610df8565b610598565b6101916101c7366004610df8565b6105c2565b6101916107c2565b6101916101e2366004610e1a565b6107d6565b6000546001600160a01b0316610139565b6101397f000000000000000000000000000000000000000000000000000000000000000081565b61019161022d366004610df8565b610873565b600254610139906001600160a01b031681565b6101397f000000000000000000000000000000000000000000000000000000000000000081565b61028c61027a366004610df8565b60016020526000908152604090205481565b60405190815260200161014d565b6101396102a8366004610e44565b610ab3565b6101916102bb366004610df8565b610add565b6101916102ce366004610e1a565b610b94565b6101916102e1366004610df8565b610cfa565b6101916102f4366004610df8565b610d35565b60005b6004548110156104af5760006004828154811061031b5761031b610e5d565b60009182526020822001546040516370a0823160e01b81523060048201526001600160a01b03909116925082906370a0823190602401602060405180830381865afa15801561036e573d6000803e3d6000fd5b505050506040513d601f19601f820116820180604052508101906103929190610e73565b6001600160a01b03831660009081526001602052604090205490915080821180156103c757506003546001600160a01b031615155b156104995760006103d88284610ea2565b60035460405163a9059cbb60e01b81526001600160a01b0391821660048201526024810183905291925085169063a9059cbb906044016020604051808303816000875af115801561042d573d6000803e3d6000fd5b505050506040513d601f19601f820116820180604052508101906104519190610ecb565b506003546040518281526001600160a01b03918216918616907f85a896853d96ec4d7e8cd547c99cc6593f4cad2ee614b254c3ce7e22c40ca4109060200160405180910390a3505b50505080806104a790610ee6565b9150506102fc565b50565b6002546001600160a01b03163314806104d557506000546001600160a01b031633145b6104fa5760405162461bcd60e51b81526004016104f190610eff565b60405180910390fd5b604051631a4ca37b60e21b81526001600160a01b038381166004830152602482018390523060448301527f000000000000000000000000000000000000000000000000000000000000000016906369328dec906064016020604051808303816000875af115801561056f573d6000803e3d6000fd5b505050506040513d601f19601f820116820180604052508101906105939190610e73565b505050565b6105a0610d5f565b600380546001600160a01b0319166001600160a01b0392909216919091179055565b6002546001600160a01b03163314806105e557506000546001600160a01b031633145b6106405760405162461bcd60e51b815260206004820152602660248201527f5661756c74526f75746572486f6f6b3a20556e617574686f72697a656420465860448201526520636865636b60d01b60648201526084016104f1565b60008060007f00000000000000000000000000000000000000000000000000000000000000006001600160a01b03166339a07b9c6040518163ffffffff1660e01b8152600401606060405180830381865afa1580156106a3573d6000803e3d6000fd5b505050506040513d601f19601f820116820180604052508101906106c79190610f4c565b925092509250600083156107bb57821561074957846001600160a01b03167f8374e2765ed283f1e54c68f6c893ede8363b41a02e94cc7e03a9d448417517a28260405161073c91906040808252600b908201526a0526174654d6f76656455760ac1b6060820152602081019190915260800190565b60405180910390a26107bb565b81156107bb57846001600160a01b03167f8374e2765ed283f1e54c68f6c893ede8363b41a02e94cc7e03a9d448417517a2826040516107b291906040808252600d908201526c2930ba32a6b7bb32b22237bbb760991b6060820152602081019190915260800190565b60405180910390a25b5050505050565b6107ca610d5f565b6107d46000610d8c565b565b6107de610d5f565b6001600160a01b0382166000908152600160209081526040808320849055600590915290205460ff1661086f576004805460018082019092557f8a35acfbc15ff81a39ae7d344fd709f28e8600b4aa8c65c6b64bfe7fe36bd19b0180546001600160a01b0319166001600160a01b0385169081179091556000908152600560205260409020805460ff191690911790555b5050565b6002546001600160a01b031633146108ea5760405162461bcd60e51b815260206004820152603460248201527f5661756c74526f75746572486f6f6b3a204f6e6c79206d61696e207661756c746044820152732063616e207472696767657220726f7574696e6760601b60648201526084016104f1565b6040516370a0823160e01b81523060048201526000906001600160a01b038316906370a0823190602401602060405180830381865afa158015610931573d6000803e3d6000fd5b505050506040513d601f19601f820116820180604052508101906109559190610e73565b6001600160a01b038316600090815260016020526040902054909150808211156105935760006109858284610ea2565b6003549091506001600160a01b03166109f05760405162461bcd60e51b815260206004820152602760248201527f5661756c74526f75746572486f6f6b3a205969656c642070726f746f636f6c206044820152661b9bdd081cd95d60ca1b60648201526084016104f1565b60035460405163a9059cbb60e01b81526001600160a01b039182166004820152602481018390529085169063a9059cbb906044016020604051808303816000875af1158015610a43573d6000803e3d6000fd5b505050506040513d601f19601f82011682018060405250810190610a679190610ecb565b506003546040518281526001600160a01b03918216918616907f85a896853d96ec4d7e8cd547c99cc6593f4cad2ee614b254c3ce7e22c40ca4109060200160405180910390a350505050565b60048181548110610ac357600080fd5b6000918252602090912001546001600160a01b0316905081565b6002546001600160a01b03163314610b5d5760405162461bcd60e51b815260206004820152603960248201527f5661756c74526f75746572486f6f6b3a204f6e6c79206d61696e207661756c7460448201527f2063616e207472696767657220756e77696e642f72657061790000000000000060648201526084016104f1565b6040516001600160a01b038216907fa581b4d9935b98081ec3947812358e67992b62e0261ec7135cb93a83a531fa1590600090a250565b6002546001600160a01b0316331480610bb757506000546001600160a01b031633145b610bd35760405162461bcd60e51b81526004016104f190610eff565b60405163095ea7b360e01b81526001600160a01b037f0000000000000000000000000000000000000000000000000000000000000000811660048301526024820183905283169063095ea7b3906044016020604051808303816000875af1158015610c42573d6000803e3d6000fd5b505050506040513d601f19601f82011682018060405250810190610c669190610ecb565b5060405163617ba03760e01b81526001600160a01b03838116600483015260248201839052306044830152600060648301527f0000000000000000000000000000000000000000000000000000000000000000169063617ba03790608401600060405180830381600087803b158015610cde57600080fd5b505af1158015610cf2573d6000803e3d6000fd5b505050505050565b610d02610d5f565b6001600160a01b038116610d2c57604051631e4fbdf760e01b8152600060048201526024016104f1565b6104af81610d8c565b610d3d610d5f565b600280546001600160a01b0319166001600160a01b0392909216919091179055565b6000546001600160a01b031633146107d45760405163118cdaa760e01b81523360048201526024016104f1565b600080546001600160a01b038381166001600160a01b0319831681178455604051919092169283917f8be0079c531659141344cd1fd0a4f28419497f9722a3daafe3b4186f6b6457e09190a35050565b80356001600160a01b0381168114610df357600080fd5b919050565b600060208284031215610e0a57600080fd5b610e1382610ddc565b9392505050565b60008060408385031215610e2d57600080fd5b610e3683610ddc565b946020939093013593505050565b600060208284031215610e5657600080fd5b5035919050565b634e487b7160e01b600052603260045260246000fd5b600060208284031215610e8557600080fd5b5051919050565b634e487b7160e01b600052601160045260246000fd5b81810381811115610eb557610eb5610e8c565b92915050565b80518015158114610df357600080fd5b600060208284031215610edd57600080fd5b610e1382610ebb565b600060018201610ef857610ef8610e8c565b5060010190565b6020808252602d908201527f5661756c74526f75746572486f6f6b3a204f6e6c79207661756c74206f72206f60408201526c1ddb995c8818d85b8818d85b1b609a1b606082015260800190565b600080600060608486031215610f6157600080fd5b610f6a84610ebb565b9250610f7860208501610ebb565b9150610f8660408501610ebb565b9050925092509256fea2646970667358221220aadfc00eb2ecc431b6dcac4f25e1a3163452f4a17851eb9bdde3ae725568cef164736f6c63430008140033",
  "linkReferences": {},
  "deployedLinkReferences": {}
}