{
  "_format": "hh-sol-artifact-1",
  "contractName": "ChainlinkOracle",
  "sourceName": "contracts/ChainlinkOracle.sol",
  "abi": [
    {
      "inputs": [
        {
          "internalType": "address",
          "name": "_priceFeedAddress",
          "type": "address"
        }
      ],
      "stateMutability": "nonpayable",
      "type": "constructor"
    },
    {
      "inputs": [
        {
          "internalType": "address",
          "name": "",
          "type": "address"
        },
        {
          "internalType": "address",
          "name": "",
          "type": "address"
        }
      ],
      "name": "getRate",
      "outputs": [
        {
          "internalType": "uint256",
          "name": "",
          "type": "uint256"
        }
      ],
      "stateMutability": "view",
      "type": "function"
    }
  ],
  "bytecode": "0x608060405234801561001057600080fd5b506040516102a63803806102a683398101604081905261002f91610054565b600080546001600160a01b0319166001600160a01b0392909216919091179055610084565b60006020828403121561006657600080fd5b81516001600160a01b038116811461007d57600080fd5b9392505050565b610213806100936000396000f3fe608060405234801561001057600080fd5b506004361061002b5760003560e01c8063379b87ea14610030575b600080fd5b61004361003e366004610140565b610055565b60405190815260200160405180910390f35b6000805460408051633fabe5a360e21b8152905183926001600160a01b03169163feaf968c9160048083019260a09291908290030181865afa15801561009f573d6000803e3d6000fd5b505050506040513d601f19601f820116820180604052508101906100c3919061018d565b5050509150506000811361011d5760405162461bcd60e51b815260206004820152601c60248201527f436861696e6c696e6b207072696365206973206e6f742076616c696400000000604482015260640160405180910390fd5b9392505050565b80356001600160a01b038116811461013b57600080fd5b919050565b6000806040838503121561015357600080fd5b61015c83610124565b915061016a60208401610124565b90509250929050565b805169ffffffffffffffffffff8116811461013b57600080fd5b600080600080600060a086880312156101a557600080fd5b6101ae86610173565b94506020860151935060408601519250606086015191506101d160808701610173565b9050929550929590935056fea2646970667358221220b56046085aedc4ef80a4ee804170fa0a3b28c75741507e4805a03720674b1e0b64736f6c63430008140033",
  "linkReferences": {},
  "deployedLinkReferences": {}
}