{
  "_format": "hh-sol-artifact-1",
  "contractName": "Vault",
  "sourceName": "contracts/Vault.sol",
  "abi": [
    {
      "inputs": [
        {
          "internalType": "address",
          "name": "_rateLockOracleAddress",
          "type": "address"
        },
        {
          "internalType": "address",
          "name": "_claimManagerAddress",
          "type": "address"
        },
        {
          "internalType": "address",
          "name": "_vaultRouterHookAddress",
          "type": "address"
        }
      ],
      "stateMutability": "nonpayable",
      "type": "constructor"
    },
    {
      "anonymous": false,
      "inputs": [
        {
          "indexed": true,
          "internalType": "bytes32",
          "name": "depositId",
          "type": "bytes32"
        },
        {
          "indexed": true,
          "internalType": "address",
          "name": "recipient",
          "type": "address"
        }
      ],
      "name": "ClaimExecuted",
      "type": "event"
    },
    {
      "anonymous": false,
      "inputs": [
        {
          "indexed": true,
          "internalType": "bytes32",
          "name": "depositId",
          "type": "bytes32"
        },
        {
          "indexed": true,
          "internalType": "address",
          "name": "sender",
          "type": "address"
        },
        {
          "indexed": true,
          "internalType": "address",
          "name": "recipient",
          "type": "address"
        },
        {
          "indexed": false,
          "internalType": "address",
          "name": "token",
          "type": "address"
        },
        {
          "indexed": false,
          "internalType": "uint256",
          "name": "amount",
          "type": "uint256"
        },
        {
          "indexed": false,
          "internalType": "uint256",
          "name": "lockedRate",
          "type": "uint256"
        }
      ],
      "name": "DepositLocked",
      "type": "event"
    },
    {
      "anonymous": false,
      "inputs": [
        {
          "indexed": true,
          "internalType": "bytes32",
          "name": "depositId",
          "type": "bytes32"
        },
        {
          "indexed": true,
          "internalType": "address",
          "name": "sender",
          "type": "address"
        }
      ],
      "name": "RefundIssued",
      "type": "event"
    },
    {
      "inputs": [
        {
          "internalType": "bytes32",
          "name": "depositId",
          "type": "bytes32"
        }
      ],
      "name": "claim",
      "outputs": [],
      "stateMutability": "nonpayable",
      "type": "function"
    },
    {
      "inputs": [],
      "name": "claimManager",
      "outputs": [
        {
          "internalType": "contract ClaimManager",
          "name": "",
          "type": "address"
        }
      ],
      "stateMutability": "view",
      "type": "function"
    },
    {
      "inputs": [
        {
          "internalType": "address",
          "name": "recipient",
          "type": "address"
        },
        {
          "internalType": "uint256",
          "name": "amount",
          "type": "uint256"
        },
        {
          "internalType": "address",
          "name": "token",
          "type": "address"
        }
      ],
      "name": "deposit",
      "outputs": [],
      "stateMutability": "nonpayable",
      "type": "function"
    },
    {
      "inputs": [
        {
          "internalType": "bytes32",
          "name": "",
          "type": "bytes32"
        }
      ],
      "name": "deposits",
      "outputs": [
        {
          "internalType": "address",
          "name": "sender",
          "type": "address"
        },
        {
          "internalType": "address",
          "name": "recipient",
          "type": "address"
        },
        {
          "internalType": "address",
          "name": "token",
          "type": "address"
        },
        {
          "internalType": "uint256",
          "name": "amount",
          "type": "uint256"
        },
        {
          "internalType": "uint256",
          "name": "lockedRate",
          "type": "uint256"
        },
        {
          "internalType": "uint256",
          "name": "timestamp",
          "type": "uint256"
        },
        {
          "internalType": "bool",
          "name": "executed",
          "type": "bool"
        },
        {
          "internalType": "bool",
          "name": "refunded",
          "type": "bool"
        }
      ],
      "stateMutability": "view",
      "type": "function"
    },
    {
      "inputs": [
        {
          "internalType": "bytes32",
          "name": "depositId",
          "type": "bytes32"
        }
      ],
      "name": "getLockedRate",
      "outputs": [
        {
          "internalType": "uint256",
          "name": "",
          "type": "uint256"
        }
      ],
      "stateMutability": "view",
      "type": "function"
    },
    {
      "inputs": [],
      "name": "rateLockOracle",
      "outputs": [
        {
          "internalType": "contract IRateLockOracle",
          "name": "",
          "type": "address"
        }
      ],
      "stateMutability": "view",
      "type": "function"
    },
    {
      "inputs": [
        {
          "internalType": "bytes32",
          "name": "depositId",
          "type": "bytes32"
        }
      ],
      "name": "refund",
      "outputs": [],
      "stateMutability": "nonpayable",
      "type": "function"
    },
    {
      "inputs": [
        {
          "internalType": "address",
          "name": "newHook",
          "type": "address"
        }
      ],
      "name": "setVaultRouterHook",
      "outputs": [],
      "stateMutability": "nonpayable",
      "type": "function"
    },
    {
      "inputs": [],
      "name": "vaultRouterHook",
      "outputs": [
        {
          "internalType": "contract VaultRouterHook",
          "name": "",
          "type": "address"
        }
      ],
      "stateMutability": "view",
      "type": "function"
    }
  ],
  "bytecode": "0x608060405234801561001057600080fd5b506040516110ee3803806110ee83398101604081905261002f9161008d565b600080546001600160a01b039485166001600160a01b0319918216179091556001805493851693821693909317909255600280549190931691161790556100d0565b80516001600160a01b038116811461008857600080fd5b919050565b6000806000606084860312156100a257600080fd5b6100ab84610071565b92506100b960208501610071565b91506100c760408501610071565b90509250925092565b61100f806100df6000396000f3fe608060405234801561001057600080fd5b50600436106100935760003560e01c8063a9a36dcd11610066578063a9a36dcd146101c8578063bd66528a146101f3578063d0b9587014610206578063e9c923f714610219578063f45346dc1461022c57600080fd5b80633d4dff7b1461009857806343c1af3f1461015257806366d33814146101845780637249fbb6146101b5575b600080fd5b6100ff6100a6366004610f0b565b600360208190526000918252604090912080546001820154600283015493830154600484015460058501546006909501546001600160a01b03948516969385169593909416939192909160ff8082169161010090041688565b604080516001600160a01b03998a168152978916602089015295909716948601949094526060850192909252608084015260a0830152151560c082015290151560e0820152610100015b60405180910390f35b610182610160366004610f40565b600280546001600160a01b0319166001600160a01b0392909216919091179055565b005b6101a7610192366004610f0b565b60009081526003602052604090206004015490565b604051908152602001610149565b6101826101c3366004610f0b565b61023f565b6001546101db906001600160a01b031681565b6040516001600160a01b039091168152602001610149565b610182610201366004610f0b565b610562565b6000546101db906001600160a01b031681565b6002546101db906001600160a01b031681565b61018261023a366004610f62565b6108ee565b600081815260036020526040902080546001600160a01b031661029d5760405162461bcd60e51b815260206004820152601160248201527011195c1bdcda5d081b9bdd08199bdd5b99607a1b60448201526064015b60405180910390fd5b80546001600160a01b031633146102e75760405162461bcd60e51b815260206004820152600e60248201526d139bdd08185d5d1a1bdc9a5e995960921b6044820152606401610294565b600681015460ff161561032f5760405162461bcd60e51b815260206004820152601060248201526f105b1c9958591e48195e1958dd5d195960821b6044820152606401610294565b6006810154610100900460ff161561037c5760405162461bcd60e51b815260206004820152601060248201526f105b1c9958591e481c99599d5b99195960821b6044820152606401610294565b6001546040516336d97f5960e11b8152600481018490526001600160a01b0390911690636db2feb290602401602060405180830381865afa1580156103c5573d6000803e3d6000fd5b505050506040513d601f19601f820116820180604052508101906103e99190610f9e565b6104235760405162461bcd60e51b815260206004820152600b60248201526a139bdd08195e1c1a5c995960aa1b6044820152606401610294565b6002805490820154600383015460405163121fb78160e21b81526001600160a01b039283166004820152602481019190915291169063487ede0490604401600060405180830381600087803b15801561047b57600080fd5b505af115801561048f573d6000803e3d6000fd5b5050505060068101805461ff00191661010017905560028101548154600383015460405163a9059cbb60e01b81526001600160a01b039283166004820152602481019190915291169063a9059cbb906044016020604051808303816000875af1158015610500573d6000803e3d6000fd5b505050506040513d601f19601f820116820180604052508101906105249190610f9e565b5080546040516001600160a01b039091169083907f52d9f2a519ecbfa66d20fad6e81a9bab113f565a5640d879c00b9404774d541d90600090a35050565b600081815260036020526040902080546001600160a01b03166105bb5760405162461bcd60e51b815260206004820152601160248201527011195c1bdcda5d081b9bdd08199bdd5b99607a1b6044820152606401610294565b60018101546001600160a01b031633146106085760405162461bcd60e51b815260206004820152600e60248201526d139bdd08185d5d1a1bdc9a5e995960921b6044820152606401610294565b600681015460ff16156106505760405162461bcd60e51b815260206004820152601060248201526f105b1c9958591e48195e1958dd5d195960821b6044820152606401610294565b6006810154610100900460ff161561069d5760405162461bcd60e51b815260206004820152601060248201526f105b1c9958591e481c99599d5b99195960821b6044820152606401610294565b60015460405163455f468f60e01b8152600481018490526001600160a01b039091169063455f468f90602401602060405180830381865afa1580156106e6573d6000803e3d6000fd5b505050506040513d601f19601f8201168201806040525081019061070a9190610f9e565b6107465760405162461bcd60e51b815260206004820152600d60248201526c4e6f7420636c61696d61626c6560981b6044820152606401610294565b600280549082015460405163e11ac33360e01b81526001600160a01b03918216600482015291169063e11ac33390602401600060405180830381600087803b15801561079157600080fd5b505af11580156107a5573d6000803e3d6000fd5b50506002805490840154600385015460405163121fb78160e21b81526001600160a01b03928316600482015260248101919091529116925063487ede049150604401600060405180830381600087803b15801561080157600080fd5b505af1158015610815573d6000803e3d6000fd5b5050505060068101805460ff19166001908117909155600282015490820154600383015460405163a9059cbb60e01b81526001600160a01b039283166004820152602481019190915291169063a9059cbb906044016020604051808303816000875af1158015610889573d6000803e3d6000fd5b505050506040513d601f19601f820116820180604052508101906108ad9190610f9e565b5060018101546040516001600160a01b039091169083907f7cb20280a4c854790bbf329949b8c27e8ff33e8e25ff82abf341e164777390ab90600090a35050565b6001600160a01b0383166109445760405162461bcd60e51b815260206004820181905260248201527f526563697069656e742063616e6e6f74206265207a65726f20616464726573736044820152606401610294565b600082116109945760405162461bcd60e51b815260206004820181905260248201527f416d6f756e74206d7573742062652067726561746572207468616e207a65726f6044820152606401610294565b6040516323b872dd60e01b8152336004820152306024820152604481018390526001600160a01b038216906323b872dd906064016020604051808303816000875af11580156109e7573d6000803e3d6000fd5b505050506040513d601f19601f82011682018060405250810190610a0b9190610f9e565b5060008054604051631bcdc3f560e11b81526001600160a01b038481166004830152602482018490529091169063379b87ea90604401602060405180830381865afa158015610a5e573d6000803e3d6000fd5b505050506040513d601f19601f82011682018060405250810190610a829190610fc0565b905060008111610ad45760405162461bcd60e51b815260206004820152601860248201527f496e76616c696420726174652066726f6d206f7261636c6500000000000000006044820152606401610294565b60408051466020808301919091526bffffffffffffffffffffffff1930606090811b82168486015233811b8216605485015288811b8216606885015286901b16607c830152609082018690524260b0808401919091528351808403909101815260d090920190925280519101206000906000818152600360205260409020549091506001600160a01b031615610b9d5760405162461bcd60e51b815260206004820152600e60248201526d4465706f7369742065786973747360901b6044820152606401610294565b600154604051635f70a38760e11b8152600481018390526001600160a01b039091169063bee1470e90602401600060405180830381600087803b158015610be357600080fd5b505af1158015610bf7573d6000803e3d6000fd5b50505050604051806101000160405280336001600160a01b03168152602001866001600160a01b03168152602001846001600160a01b03168152602001858152602001838152602001428152602001600015158152602001600015158152506003600083815260200190815260200160002060008201518160000160006101000a8154816001600160a01b0302191690836001600160a01b0316021790555060208201518160010160006101000a8154816001600160a01b0302191690836001600160a01b0316021790555060408201518160020160006101000a8154816001600160a01b0302191690836001600160a01b03160217905550606082015181600301556080820151816004015560a0820151816005015560c08201518160060160006101000a81548160ff02191690831515021790555060e08201518160060160016101000a81548160ff021916908315150217905550905050826001600160a01b031663095ea7b3600260009054906101000a90046001600160a01b0316866040518363ffffffff1660e01b8152600401610da89291906001600160a01b03929092168252602082015260400190565b6020604051808303816000875af1158015610dc7573d6000803e3d6000fd5b505050506040513d601f19601f82011682018060405250810190610deb9190610f9e565b5060025460405163eeb149e760e01b81526001600160a01b038581166004830152602482018790529091169063eeb149e790604401600060405180830381600087803b158015610e3a57600080fd5b505af1158015610e4e573d6000803e3d6000fd5b505060025460405163573e769160e11b81526001600160a01b038781166004830152909116925063ae7ced229150602401600060405180830381600087803b158015610e9957600080fd5b505af1158015610ead573d6000803e3d6000fd5b5050604080516001600160a01b03878116825260208201899052918101869052908816925033915083907f352ab0970c546605c3c8fc72b2d403a891a153fb627abb9f8fcbd6398b2a6aca9060600160405180910390a45050505050565b600060208284031215610f1d57600080fd5b5035919050565b80356001600160a01b0381168114610f3b57600080fd5b919050565b600060208284031215610f5257600080fd5b610f5b82610f24565b9392505050565b600080600060608486031215610f7757600080fd5b610f8084610f24565b925060208401359150610f9560408501610f24565b90509250925092565b600060208284031215610fb057600080fd5b81518015158114610f5b57600080fd5b600060208284031215610fd257600080fd5b505191905056fea26469706673582212204dff36240fbe1d2331ae727ad67ab4ce9b75f6c2ec3fbe7969d6b2ceb4074ba764736f6c63430008140033",
  "linkReferences": {},
  "deployedLinkReferences": {}
}