{
  "_format": "hh-sol-artifact-1",
  "contractName": "ClaimManager",
  "sourceName": "contracts/ClaimManager.sol",
  "abi": [
    {
      "inputs": [
        {
          "internalType": "uint256",
          "name": "_claimWindowSeconds",
          "type": "uint256"
        }
      ],
      "stateMutability": "nonpayable",
      "type": "constructor"
    },
    {
      "inputs": [],
      "name": "claimWindow",
      "outputs": [
        {
          "internalType": "uint256",
          "name": "",
          "type": "uint256"
        }
      ],
      "stateMutability": "view",
      "type": "function"
    },
    {
      "inputs": [
        {
          "internalType": "bytes32",
          "name": "",
          "type": "bytes32"
        }
      ],
      "name": "depositTimestamps",
      "outputs": [
        {
          "internalType": "uint256",
          "name": "",
          "type": "uint256"
        }
      ],
      "stateMutability": "view",
      "type": "function"
    },
    {
      "inputs": [
        {
          "internalType": "bytes32",
          "name": "depositId",
          "type": "bytes32"
        }
      ],
      "name": "isClaimable",
      "outputs": [
        {
          "internalType": "bool",
          "name": "",
          "type": "bool"
        }
      ],
      "stateMutability": "view",
      "type": "function"
    },
    {
      "inputs": [
        {
          "internalType": "bytes32",
          "name": "depositId",
          "type": "bytes32"
        }
      ],
      "name": "isExpired",
      "outputs": [
        {
          "internalType": "bool",
          "name": "",
          "type": "bool"
        }
      ],
      "stateMutability": "view",
      "type": "function"
    },
    {
      "inputs": [],
      "name": "owner",
      "outputs": [
        {
          "internalType": "address",
          "name": "",
          "type": "address"
        }
      ],
      "stateMutability": "view",
      "type": "function"
    },
    {
      "inputs": [
        {
          "internalType": "bytes32",
          "name": "depositId",
          "type": "bytes32"
        }
      ],
      "name": "recordDeposit",
      "outputs": [],
      "stateMutability": "nonpayable",
      "type": "function"
    },
    {
      "inputs": [
        {
          "internalType": "address",
          "name": "_vaultAddress",
          "type": "address"
        }
      ],
      "name": "setVaultAddress",
      "outputs": [],
      "stateMutability": "nonpayable",
      "type": "function"
    },
    {
      "inputs": [],
      "name": "vaultAddress",
      "outputs": [
        {
          "internalType": "address",
          "name": "",
          "type": "address"
        }
      ],
      "stateMutability": "view",
      "type": "function"
    }
  ],
  "bytecode": "0x608060405234801561001057600080fd5b506040516104be3803806104be83398101604081905261002f91610049565b600055600380546001600160a01b03191633179055610062565b60006020828403121561005b57600080fd5b5051919050565b61044d806100716000396000f3fe608060405234801561001057600080fd5b50600436106100885760003560e01c80638da5cb5b1161005b5780638da5cb5b146101085780638dfd1fc41461011b578063bee1470e14610149578063c5d37ae11461015c57600080fd5b8063430bf08a1461008d578063455f468f146100bd5780636db2feb2146100e057806385535cc5146100f3575b600080fd5b6002546100a0906001600160a01b031681565b6040516001600160a01b0390911681526020015b60405180910390f35b6100d06100cb3660046103a7565b610165565b60405190151581526020016100b4565b6100d06100ee3660046103a7565b61019b565b6101066101013660046103c0565b6101d0565b005b6003546100a0906001600160a01b031681565b61013b6101293660046103a7565b60016020526000908152604090205481565b6040519081526020016100b4565b6101066101573660046103a7565b6102e8565b61013b60005481565b6000818152600160205260408120548082036101845750600092915050565b60005461019190826103f0565b4211159392505050565b6000818152600160205260408120548082036101ba5750600092915050565b6000546101c790826103f0565b42119392505050565b6003546001600160a01b0316331461021f5760405162461bcd60e51b815260206004820152600d60248201526c2737ba103a34329037bbb732b960991b60448201526064015b60405180910390fd5b6002546001600160a01b0316156102785760405162461bcd60e51b815260206004820152601960248201527f5661756c74206164647265737320616c726561647920736574000000000000006044820152606401610216565b6001600160a01b0381166102c65760405162461bcd60e51b8152602060048201526015602482015274496e76616c6964207661756c74206164647265737360581b6044820152606401610216565b600280546001600160a01b0319166001600160a01b0392909216919091179055565b6002546001600160a01b031633146103385760405162461bcd60e51b815260206004820152601360248201527213db9b1e481d985d5b1d0818d85b8818d85b1b606a1b6044820152606401610216565b600081815260016020526040902054156103945760405162461bcd60e51b815260206004820152601860248201527f4465706f73697420616c7265616479207265636f7264656400000000000000006044820152606401610216565b6000908152600160205260409020429055565b6000602082840312156103b957600080fd5b5035919050565b6000602082840312156103d257600080fd5b81356001600160a01b03811681146103e957600080fd5b9392505050565b8082018082111561041157634e487b7160e01b600052601160045260246000fd5b9291505056fea264697066735822122034453b9f73115626fb8fa26b9a2163d4932832c53cedad301ac929a36de2c90164736f6c63430008140033",
  "linkReferences": {},
  "deployedLinkReferences": {}
}