{
  "_format": "hh-sol-artifact-1",
  "contractName": "MockWETH",
  "sourceName": "contracts/MockWETH.sol",
  "abi": [
    {
      "anonymous": false,
      "inputs": [
        {
          "indexed": true,
          "internalType": "address",
          "name": "owner",
          "type": "address"
        },
        {
          "indexed": true,
          "internalType": "address",
          "name": "spender",
          "type": "address"
        },
        {
          "indexed": false,
          "internalType": "uint256",
          "name": "value",
          "type": "uint256"
        }
      ],
      "name": "Approval",
      "type": "event"
    },
    {
      "anonymous": false,
      "inputs": [
        {
          "indexed": true,
          "internalType": "address",
          "name": "dst",
          "type": "address"
        },
        {
          "indexed": false,
          "internalType": "uint256",
          "name": "wad",
          "type": "uint256"
        }
      ],
      "name": "Deposit",
      "type": "event"
    },
    {
      "anonymous": false,
      "inputs": [
        {
          "indexed": true,
          "internalType": "address",
          "name": "from",
          "type": "address"
        },
        {
          "indexed": true,
          "internalType": "address",
          "name": "to",
          "type": "address"
        },
        {
          "indexed": false,
          "internalType": "uint256",
          "name": "value",
          "type": "uint256"
        }
      ],
      "name": "Transfer",
      "type": "event"
    },
    {
      "anonymous": false,
      "inputs": [
        {
          "indexed": true,
          "internalType": "address",
          "name": "src",
          "type": "address"
        },
        {
          "indexed": false,
          "internalType": "uint256",
          "name": "wad",
          "type": "uint256"
        }
      ],
      "name": "Withdrawal",
      "type": "event"
    },
    {
      "inputs": [
        {
          "internalType": "address",
          "name": "",
          "type": "address"
        },
        {
          "internalType": "address",
          "name": "",
          "type": "address"
        }
      ],
      "name": "allowance",
      "outputs": [
        {
          "internalType": "uint256",
          "name": "",
          "type": "uint256"
        }
      ],
      "stateMutability": "view",
      "type": "function"
    },
    {
      "inputs": [
        {
          "internalType": "address",
          "name": "spender",
          "type": "address"
        },
        {
          "internalType": "uint256",
          "name": "value",
          "type": "uint256"
        }
      ],
      "name": "approve",
      "outputs": [
        {
          "internalType": "bool",
          "name": "",
          "type": "bool"
        }
      ],
      "stateMutability": "nonpayable",
      "type": "function"
    },
    {
      "inputs": [
        {
          "internalType": "address",
          "name": "",
          "type": "address"
        }
      ],
      "name": "balanceOf",
      "outputs": [
        {
          "internalType": "uint256",
          "name": "",
          "type": "uint256"
        }
      ],
      "stateMutability": "view",
      "type": "function"
    },
    {
      "inputs": [],
      "name": "decimals",
      "outputs": [
        {
          "internalType": "uint8",
          "name": "",
          "type": "uint8"
        }
      ],
      "stateMutability": "view",
      "type": "function"
    },
    {
      "inputs": [],
      "name": "deposit",
      "outputs": [],
      "stateMutability": "payable",
      "type": "function"
    },
    {
      "inputs": [
        {
          "internalType": "address",
          "name": "to",
          "type": "address"
        },
        {
          "internalType": "uint256",
          "name": "amount",
          "type": "uint256"
        }
      ],
      "name": "mint",
      "outputs": [],
      "stateMutability": "nonpayable",
      "type": "function"
    },
    {
      "inputs": [],
      "name": "name",
      "outputs": [
        {
          "internalType": "string",
          "name": "",
          "type": "string"
        }
      ],
      "stateMutability": "view",
      "type": "function"
    },
    {
      "inputs": [],
      "name": "symbol",
      "outputs": [
        {
          "internalType": "string",
          "name": "",
          "type": "string"
        }
      ],
      "stateMutability": "view",
      "type": "function"
    },
    {
      "inputs": [],
      "name": "totalSupply",
      "outputs": [
        {
          "internalType": "uint256",
          "name": "",
          "type": "uint256"
        }
      ],
      "stateMutability": "view",
      "type": "function"
    },
    {
      "inputs": [
        {
          "internalType": "address",
          "name": "to",
          "type": "address"
        },
        {
          "internalType": "uint256",
          "name": "value",
          "type": "uint256"
        }
      ],
      "name": "transfer",
      "outputs": [
        {
          "internalType": "bool",
          "name": "",
          "type": "bool"
        }
      ],
      "stateMutability": "nonpayable",
      "type": "function"
    },
    {
      "inputs": [
        {
          "internalType": "address",
          "name": "from",
          "type": "address"
        },
        {
          "internalType": "address",
          "name": "to",
          "type": "address"
        },
        {
          "internalType": "uint256",
          "name": "value",
          "type": "uint256"
        }
      ],
      "name": "transferFrom",
      "outputs": [
        {
          "internalType": "bool",
          "name": "",
          "type": "bool"
        }
      ],
      "stateMutability": "nonpayable",
      "type": "function"
    },
    {
      "inputs": [
        {
          "internalType": "uint256",
          "name": "wad",
          "type": "uint256"
        }
      ],
      "name": "withdraw",
      "outputs": [],
      "stateMutability": "nonpayable",
      "type": "function"
    },
    {
      "stateMutability": "payable",
      "type": "receive"
    }
  ],
  "bytecode": "0x60c0604052601260809081527126b7b1b5902bb930b83832b21022ba3432b960711b60a0526000906100319082610119565b506040805180820190915260048152630ae8aa8960e31b602082015260019061005a9082610119565b506002805460ff1916601217905534801561007457600080fd5b506101d8565b634e487b7160e01b600052604160045260246000fd5b600181811c908216806100a457607f821691505b6020821081036100c457634e487b7160e01b600052602260045260246000fd5b50919050565b601f82111561011457600081815260208120601f850160051c810160208610156100f15750805b601f850160051c820191505b81811015610110578281556001016100fd565b5050505b505050565b81516001600160401b038111156101325761013261007a565b610146816101408454610090565b846100ca565b602080601f83116001811461017b57600084156101635750858301515b600019600386901b1c1916600185901b178555610110565b600085815260208120601f198616915b828110156101aa5788860151825594840194600190910190840161018b565b50858210156101c85787850151600019600388901b60f8161c191681555b5050505050600190811b01905550565b6109aa806101e76000396000f3fe6080604052600436106100ab5760003560e01c806340c10f191161006457806340c10f19146101aa57806370a08231146101ca57806395d89b41146101f7578063a9059cbb1461020c578063d0e30db01461022c578063dd62ed3e1461023457600080fd5b806306fdde03146100bf578063095ea7b3146100ea57806318160ddd1461011a57806323b872dd1461013e5780632e1a7d4d1461015e578063313ce5671461017e57600080fd5b366100ba576100b861026c565b005b600080fd5b3480156100cb57600080fd5b506100d4610306565b6040516100e191906107a7565b60405180910390f35b3480156100f657600080fd5b5061010a610105366004610811565b610394565b60405190151581526020016100e1565b34801561012657600080fd5b5061013060035481565b6040519081526020016100e1565b34801561014a57600080fd5b5061010a61015936600461083b565b610401565b34801561016a57600080fd5b506100b8610179366004610877565b6105ee565b34801561018a57600080fd5b506002546101989060ff1681565b60405160ff90911681526020016100e1565b3480156101b657600080fd5b506100b86101c5366004610811565b61070d565b3480156101d657600080fd5b506101306101e5366004610890565b60046020526000908152604090205481565b34801561020357600080fd5b506100d4610786565b34801561021857600080fd5b5061010a610227366004610811565b610793565b6100b861026c565b34801561024057600080fd5b5061013061024f3660046108ab565b600560209081526000928352604080842090915290825290205481565b336000908152600460205260408120805434929061028b9084906108f4565b9250508190555034600360008282546102a491906108f4565b909155505060405134815233907fe1fffcc4923d04b559f4d29a8bfc6cda04eb5b0d3c460751c2402c5c5cc9109c9060200160405180910390a260405134815233906000906000805160206109558339815191529060200160405180910390a3565b6000805461031390610907565b80601f016020809104026020016040519081016040528092919081815260200182805461033f90610907565b801561038c5780601f106103615761010080835404028352916020019161038c565b820191906000526020600020905b81548152906001019060200180831161036f57829003601f168201915b505050505081565b3360008181526005602090815260408083206001600160a01b038716808552925280832085905551919290917f8c5be1e5ebec7d5bd14f71427d1e84f3dd0314c0f7b2291e5b200ac8c7c3b925906103ef9086815260200190565b60405180910390a35060015b92915050565b6001600160a01b0383166000908152600460205260408120548211156104655760405162461bcd60e51b8152602060048201526014602482015273696e73756666696369656e742062616c616e636560601b60448201526064015b60405180910390fd5b6001600160a01b03841633148015906104a357506001600160a01b038416600090815260056020908152604080832033845290915290205460001914155b1561054d576001600160a01b03841660009081526005602090815260408083203384529091529020548211156105145760405162461bcd60e51b8152602060048201526016602482015275696e73756666696369656e7420616c6c6f77616e636560501b604482015260640161045c565b6001600160a01b038416600090815260056020908152604080832033845290915281208054849290610547908490610941565b90915550505b6001600160a01b03841660009081526004602052604081208054849290610575908490610941565b90915550506001600160a01b038316600090815260046020526040812080548492906105a29084906108f4565b92505081905550826001600160a01b0316846001600160a01b0316600080516020610955833981519152846040516105dc91815260200190565b60405180910390a35060019392505050565b336000908152600460205260409020548111156106445760405162461bcd60e51b8152602060048201526014602482015273696e73756666696369656e742062616c616e636560601b604482015260640161045c565b3360009081526004602052604081208054839290610663908490610941565b92505081905550806003600082825461067c9190610941565b9091555050604051339082156108fc029083906000818181858888f193505050501580156106ae573d6000803e3d6000fd5b5060405181815233907f7fcf532c15f0a6db0bd6d0e038bea71d30d808c7d98cb3bf7268a95bf5081b659060200160405180910390a260405181815260009033906000805160206109558339815191529060200160405180910390a350565b6001600160a01b038216600090815260046020526040812080548392906107359084906108f4565b92505081905550806003600082825461074e91906108f4565b90915550506040518181526001600160a01b038316906000906000805160206109558339815191529060200160405180910390a35050565b6001805461031390610907565b60006107a0338484610401565b9392505050565b600060208083528351808285015260005b818110156107d4578581018301518582016040015282016107b8565b506000604082860101526040601f19601f8301168501019250505092915050565b80356001600160a01b038116811461080c57600080fd5b919050565b6000806040838503121561082457600080fd5b61082d836107f5565b946020939093013593505050565b60008060006060848603121561085057600080fd5b610859846107f5565b9250610867602085016107f5565b9150604084013590509250925092565b60006020828403121561088957600080fd5b5035919050565b6000602082840312156108a257600080fd5b6107a0826107f5565b600080604083850312156108be57600080fd5b6108c7836107f5565b91506108d5602084016107f5565b90509250929050565b634e487b7160e01b600052601160045260246000fd5b808201808211156103fb576103fb6108de565b600181811c9082168061091b57607f821691505b60208210810361093b57634e487b7160e01b600052602260045260246000fd5b50919050565b818103818111156103fb576103fb6108de56feddf252ad1be2c89b69c2b068fc378daa952ba7f163c4a11628f55a4df523b3efa2646970667358221220f91d1c24a6d0f8a79ce5a1ef3d36fa0732b690a86578abe1447017c981e8273b64736f6c63430008140033",
  "linkReferences": {},
  "deployedLinkReferences": {}
}