{
  "_format": "hh-sol-artifact-1",
  "contractName": "MockAavePool",
  "sourceName": "contracts/MockAavePool.sol",
  "abi": [
    {
      "anonymous": false,
      "inputs": [
        {
          "indexed": true,
          "internalType": "address",
          "name": "asset",
          "type": "address"
        },
        {
          "indexed": false,
          "internalType": "uint256",
          "name": "amount",
          "type": "uint256"
        },
        {
          "indexed": true,
          "internalType": "address",
          "name": "onBehalfOf",
          "type": "address"
        },
        {
          "indexed": false,
          "internalType": "uint16",
          "name": "referralCode",
          "type": "uint16"
        }
      ],
      "name": "Supplied",
      "type": "event"
    },
    {
      "anonymous": false,
      "inputs": [
        {
          "indexed": true,
          "internalType": "address",
          "name": "asset",
          "type": "address"
        },
        {
          "indexed": false,
          "internalType": "uint256",
          "name": "amount",
          "type": "uint256"
        },
        {
          "indexed": true,
          "internalType": "address",
          "name": "to",
          "type": "address"
        }
      ],
      "name": "Withdrawn",
      "type": "event"
    },
    {
      "inputs": [
        {
          "internalType": "address",
          "name": "asset",
          "type": "address"
        },
        {
          "internalType": "uint256",
          "name": "amount",
          "type": "uint256"
        },
        {
          "internalType": "address",
          "name": "onBehalfOf",
          "type": "address"
        },
        {
          "internalType": "uint16",
          "name": "referralCode",
          "type": "uint16"
        }
      ],
      "name": "supply",
      "outputs": [],
      "stateMutability": "nonpayable",
      "type": "function"
    },
    {
      "inputs": [
        {
          "internalType": "address",
          "name": "asset",
          "type": "address"
        },
        {
          "internalType": "uint256",
          "name": "amount",
          "type": "uint256"
        },
        {
          "internalType": "address",
          "name": "to",
          "type": "address"
        }
      ],
      "name": "withdraw",
      "outputs": [
        {
          "internalType": "uint256",
          "name": "",
          "type": "uint256"
        }
      ],
      "stateMutability": "nonpayable",
      "type": "function"
    }
  ],
  "bytecode": "0x608060405234801561001057600080fd5b50610202806100206000396000f3fe608060405234801561001057600080fd5b50600436106100365760003560e01c8063617ba0371461003b57806369328dec14610050575b600080fd5b61004e61004936600461013a565b610075565b005b61006361005e366004610190565b6100c7565b60405190815260200160405180910390f35b6040805184815261ffff831660208201526001600160a01b0380851692908716917fbc1106253c048849439055f47b49a5131462058bb8b62bcf9e7d067df7e54a24910160405180910390a350505050565b6000816001600160a01b0316846001600160a01b03167fcbcdbdf10631a43cc99c80acace8232649421c3f4f73919f16013d47c83a687a8560405161010e91815260200190565b60405180910390a3509092915050565b80356001600160a01b038116811461013557600080fd5b919050565b6000806000806080858703121561015057600080fd5b6101598561011e565b93506020850135925061016e6040860161011e565b9150606085013561ffff8116811461018557600080fd5b939692955090935050565b6000806000606084860312156101a557600080fd5b6101ae8461011e565b9250602084013591506101c36040850161011e565b9050925092509256fea264697066735822122049e88aea25b99049c303e662fbd3ba1d384a5d97a9561abe2fd90ff3516adb0164736f6c63430008140033",
  "linkReferences": {},
  "deployedLinkReferences": {}
}