{
  "_format": "hh-sol-artifact-1",
  "contractName": "MockMainVault",
  "sourceName": "contracts/MockMainVault.sol",
  "abi": [
    {
      "inputs": [
        {
          "internalType": "address",
          "name": "_hookAddress",
          "type": "address"
        }
      ],
      "stateMutability": "nonpayable",
      "type": "constructor"
    },
    {
      "inputs": [],
      "name": "hook",
      "outputs": [
        {
          "internalType": "contract VaultRouterHook",
          "name": "",
          "type": "address"
        }
      ],
      "stateMutability": "view",
      "type": "function"
    },
    {
      "inputs": [
        {
          "internalType": "address",
          "name": "_hookAddress",
          "type": "address"
        }
      ],
      "name": "setHookAddress",
      "outputs": [],
      "stateMutability": "nonpayable",
      "type": "function"
    },
    {
      "inputs": [
        {
          "internalType": "address",
          "name": "token",
          "type": "address"
        }
      ],
      "name": "triggerCheckAndRoute",
      "outputs": [],
      "stateMutability": "nonpayable",
      "type": "function"
    },
    {
      "inputs": [
        {
          "internalType": "address",
          "name": "token",
          "type": "address"
        }
      ],
      "name": "triggerUnwindAndRepay",
      "outputs": [],
      "stateMutability": "nonpayable",
      "type": "function"
    }
  ],
  "bytecode": "0x608060405234801561001057600080fd5b5060405161026638038061026683398101604081905261002f91610054565b600080546001600160a01b0319166001600160a01b0392909216919091179055610084565b60006020828403121561006657600080fd5b81516001600160a01b038116811461007d57600080fd5b9392505050565b6101d3806100936000396000f3fe608060405234801561001057600080fd5b506004361061004c5760003560e01c80632f81e8c91461005157806345863322146100665780637f5a7c7b14610096578063e11a0eaa146100c5575b600080fd5b61006461005f36600461016d565b6100d8565b005b61006461007436600461016d565b600080546001600160a01b0319166001600160a01b0392909216919091179055565b6000546100a9906001600160a01b031681565b6040516001600160a01b03909116815260200160405180910390f35b6100646100d336600461016d565b61013b565b60005460405163e11ac33360e01b81526001600160a01b0383811660048301529091169063e11ac333906024015b600060405180830381600087803b15801561012057600080fd5b505af1158015610134573d6000803e3d6000fd5b5050505050565b60005460405163573e769160e11b81526001600160a01b0383811660048301529091169063ae7ced2290602401610106565b60006020828403121561017f57600080fd5b81356001600160a01b038116811461019657600080fd5b939250505056fea264697066735822122028d6da461a8ce31845e5cfe6510169cdab6f75a1e3be9679ccf44f2cec98d8fc64736f6c63430008140033",
  "linkReferences": {},
  "deployedLinkReferences": {}
}